:100000000C946D360C948C360C948C360C948C3687
:100010000C948C360C945A380C948C360C948C3688
:100020000C948C360C94B5370C948C360C948C361E
:100030000C948C360C948C360C948C360C941E3AA2
:100040000C948C360C948C360C948C360C948C3628
:100050000C948C360C94573B0C948C360C948C3648
:100060000C948C360C9402480C948C360C948C3680
:100070000C948C360C948C360C9441390C948C3640
:100080000C948C360C948C360C948C36000000004A
:100090000000000000000000000000000000001848
:1000A0001818181818180018180000000000003C54
:1000B0003C00000000000000000000000000001BE9
:1000C0001B1B7F3636FE6C6C6C0000000000183C79
:1000D0007E78783C1E1E1E7E3C1800000000003317
:1000E0007B7E3C0C181E3F3F660000000000001C99
:1000F00036363C183C6F66663F0000000000001872
:1001000018000000000000000000000000000C18B3
:100110001830303030303018180C00000000301823
:10012000180C0C0C0C0C0C1818300000000000000F
:10013000000018187E183C000000000000000000BD
:10014000000018187E1818000000000000000000D1
:10015000000000000000001818300000000000003F
:10016000000000007F000000000000000000000010
:100170000000000000000018180000000000030349
:1001800006060C0C18183030606000000000003EBD
:1001900063636363636363633E0000000000000CFD
:1001A0001C0C0C0C0C0C0C0C0C0000000000003E95
:1001B000636303061C3060607F0000000000003EA7
:1001C0006363031E030363633E0000000000000E30
:1001D0000E1E1E3636667F06060000000000007FF9
:1001E0006060607E630303633E0000000000003E29
:1001F0006360607E636363633E0000000000007F15
:1002000063630606060C0C0C0C0000000000003EA8
:100210006363633E636363633E0000000000003E6F
:10022000636363633F0303633E000000000000005C
:10023000001C000000001C00000000000000000086
:10024000001C000000001C0C180000000000000052
:1002500000070C3860380C070000000000000000A8
:1002600000007F00007F0000000000000000000090
:100270000070180E030E1870000000000000001E31
:10028000333303060C0C000C0C0000000000001EB1
:10029000336F7B7B7B7B7F603E000000000000189B
:1002A00018183C3C3C3C6666660000000000007E7E
:1002B0006363637E636363637E0000000000003E4F
:1002C00063636060606063633E0000000000007C68
:1002D00066636363636363667C0000000000007F05
:1002E0006060607F606060607F0000000000007FF1
:1002F0006060607E60606060600000000000003E42
:10030000636360606F6363673F0000000000006329
:100310006363637F6363636363000000000000182E
:1003200018181818181818181800000000000006EF
:1003300006060606060666663C000000000000632E
:10034000666C787070786C66630000000000006076
:1003500060606060606060607F00000000000066B8
:10036000667E7E7E7E7E7E66660000000000006601
:100370006676767E7E6E6E66660000000000001C6B
:1003800036636363636363361C0000000000007E15
:10039000636363637E606060600000000000003E95
:1003A0006363636363637B6F3E0300000000007E52
:1003B000636363637E636363630000000000003E69
:1003C000636360380E0363633E0000000000007E3C
:1003D00018181818181818181800000000000063E2
:1003E00063636363636363633E0000000000006651
:1003F0006666663C3C3C1818180000000000007E51
:100400007E7E7E7E7E7E3C3C3C00000000000066DE
:10041000663C3C18183C3C66660000000000006624
:100420006666663C3C181818180000000000007F43
:100430000306060C181830607F00000000001C182E
:100440001818181818181818181C00000000007E3A
:100450007E7EFF7E7E7E3C3C3C00000000001C0C4B
:100460000C0C0C0C0C0C0C0C0C1C000000000018EC
:100470003C660000000000000000000000000000DA
:1004800000000000000000007F00000000000018D5
:100490000C00000000000000000000000000000050
:1004A00000003C66063E66663F00000000000060FB
:1004B00060607C66666666667C0000000000000086
:1004C00000003C66606060663C00000000000006C2
:1004D00006063E66666666663E0000000000000096
:1004E00000003C66667E60663C0000000000000C78
:1004F00018183C1818181818180000000000000000
:1005000000003E6666663E06663C00000000006035
:1005100060607C6666666666660000000000001823
:100520001800181818181818180000000000000CFF
:100530000C000C0C0C0C0C0C0C38000000000060C3
:100540006060666C7870786C6600000000000018CF
:1005500018181818181818181800000000000000C3
:1005600000007C7E7E7E7E7E7E000000000000001B
:1005700000007C666666666666000000000000009B
:1005800000003C66666666663C00000000000000F5
:1005900000007C666666667C60600000000000000B
:1005A00000003E666666663E06060000000000002B
:1005B00000003E38303030303000000000000000D5
:1005C00000003C66603C06663C0000000000000045
:1005D00030307C30303030301C0000000000000033
:1005E00000006666666666663E0000000000000069
:1005F00000006666663C3C18180000000000000021
:1006000000007E7E7E7E3C3C3C000000000000003E
:10061000000066663C183C666600000000000000B2
:1006200000006666663C3C18187000000000000080
:1006300000007E060C1830607E0000000000060CF2
:100640000C0C0C380C0C0C0C0C06000000001818DC
:100650001818181818181818181800000000301862
:100660001818180E1818181818300000000000008C
:100670000000003B6E0000000000000000000000D1
:100680007E666666666666667E00000000000000A4
:10069000000000000000000000000000000000005A
:1006A000000000000000000000000000000000004A
:1006B000000000000000000000000000000000003A
:1006C0000000000000000000000000000000010029
:1006D00002000300040005000600070008000900EE
:1006E0000A000B000C000D000E000F00100011009E
:1006F000120013001400150016001700180019004E
:100700001A001B001C001D001E001F0020002100FD
:1007100022002300240025002600270028002900AD
:100720002A002B002C002D002E002F00300031005D
:10073000320033003400350036003700380039000D
:100740003A003B003C003D003E003F0040004100BD
:10075000420043004400450046004700480049006D
:100760004A004B004C004D004E004F00500051001D
:1007700052005300540055005600570058005900CD
:100780005A005B005C005D005E005F00000000003E
:1007900000183F18019801980198019E031803184A
:1007A00006180C183818001800000000000000009F
:1007B0003F180198019E03180E1838180018000001
:1007C0001FF00018001800180000000000000000D2
:1007D0003F1801980198019E03180E183818001848
:1007E0001818180018000FF80000000000000000A2
:1007F0003F180198019E03180E18381800180000C1
:100800000FF8180018000FF80000000000000000AA
:100810003F180198019E03180E18381800001FF0A9
:1008200000180FF018000FF8000000000000000092
:100830003F180198019E03180E1838180018000080
:100840001FF8181818181FF800000000000000001A
:100850003F180198019E03180E183818000019B0AF
:1008600019B01FB019F80FCC000000000000000004
:100870003F180198019E03180E1838180018000040
:10088000066006600FF0399C0000000000000000C8
:100890003F180198019E03180E1838180018000020
:1008A0000FF0181818180FF00000000000000000EA
:1008B0003F180198019E03180E1838180018000000
:1008C0001FF8018007E01C38000000000000000055
:1008D0003F180198019E03180E18381800000FF8F1
:1008E00018001FF818000FF80000000000000000BA
:1008F000006C1E6C036C036C036C037C036C066C55
:10090000066C0C6C186C006C00000000000000000D
:100910001E6C036C036C037C036C066C1C0C0000E7
:100920000FF8000C000C000C00000000000000009C
:100930001E6C036C036C037C036C066C1C0C0000C7
:1009400007F80C0C0C0C07F8000000000000000079
:1009500000183F1801980198019801F8031803182E
:1009600006180C18381800180000000000000000DD
:100970001F8C00CC00CC00FC018C070C1C0C000C64
:10098000000C0C000C0007FC000000000000000040
:100990001F8C00CC00FC018C070C1C0C00000FF815
:1009A000000C07F80C0007FC00000000000000002D
:1009B0001F8C00CC00CC01FC070C1C0C000C0000B0
:1009C0000FFC0C0C0C0C0FFC0000000000000000E1
:1009D0001F8C00CC00CC01FC070C1C0C000C000090
:1009E0000C0C0FFC0C0C07F80000000000000000CD
:1009F0001F8C00CC00CC00FC018C070C1C0C000CE4
:100A000000C000C003F00E1C000000000000000049
:100A10001F8C00CC00CC01FC070C1C0C000007FC58
:100A20000C000FFC0C0007FC0000000000000000A0
:100A3000006C1E6C036C036C03EC036C036C066CA3
:100A4000066C0C6C186C006C0000000000000000CC
:100A50001E6C036C036C03EC036C066C1C0C000036
:100A60000330033007F81CCE000000000000000037
:100A7000000C1F8C00CC00FC00CC00CC018C01FCD5
:100A8000030C060C1C0C000C000000000000000011
:100A90001F8C00FC00CC018C077C1C0C000C00009F
:100AA0000FF8000C000C000C00000000000000001B
:100AB0001F8C00FC00CC018C077C1C0C000C00007F
:100AC0000F78018C018C018C0000000000000000F8
:100AD0001F8C00FC00CC00CC01FC070C1C0C000C93
:100AE000000C0C000C0007FC0000000000000000DF
:100AF0001F8C00FC00CC018C077C1C0C00000FF844
:100B0000000C07F80C0007FC0000000000000000CB
:100B10001F8C00FC00CC018C077C1C0C000C00001E
:100B20000330033007F81CCE000000000000000076
:100B30001F8C00FC00CC018C077C1C0C000C0000FE
:100B400007F80C0C0C0C07F8000000000000000077
:100B50001F8C00FC00CC018C077C1C0C000007FCE7
:100B60000C000FFC0C0007FC00000000000000005F
:100B7000006C1E6C036C03EC036C036C036C07ECE1
:100B8000066C0C6C186C006C00000000000000008B
:100B900000001FF0001800180018031803180318AD
:100BA000033003003FFC00000000000000000000D4
:100BB0001FF000180318033003003FFC0000000082
:100BC0001FF00018001800180000000000000000CE
:100BD0001FF0001800180318033003003FFC00004A
:100BE0000000180018000FF80000000000000000CE
:100BF0001FF000180318033003003FFC0000000042
:100C00000FF8180018000FF80000000000000000A6
:100C10001FF000180318033003003FFC00001818F1
:100C200018181FF818180FF000000000000000004E
:100C30001FF000180318033003003FFC0000000001
:100C40000180018007E01C38000000000000000067
:100C50001FF000180318033003003FFC00000000E1
:100C60000FF0181818180FF0000000000000000026
:100C70003F9800D800D800D80CD80CDE0CD80D98BE
:100C80000C183FF8001800180000000000000000D9
:100C90003F9800D800D80CD80D9E0C183FF80018CB
:100CA0000018180018000FF80000000000000000F5
:100CB0003F9800D80CD80D9E0C183FF800001FF08C
:100CC00000180FF018000FF80000000000000000EE
:100CD0003F9800D80CD80D9E0C183FF8001800184B
:100CE0000FF0181818180FF00000000000000000A6
:100CF0001F6C01EC01EC0DFC0F6C0C6C1FEC006C1C
:100D0000000C0C000C0007FC0000000000000000BC
:100D10001FCC006C006C006C066C066C066C06CC7C
:100D2000060C1FFC000C000C00000000000000007E
:100D300000001FF00018001800180CD80CD80CD8B0
:100D40000CD80CC03FFC00000000000000000000B8
:100D50001FF0001800180018001800303FFC018038
:100D6000018001800180018000000000000000007F
:100D70001FF000180018001800303FFC01800180AF
:100D80001FF000180018001800000000000000000C
:100D90001FF000180018001800303FFC018001808F
:100DA0000180180018000FF800000000000000008B
:100DB0001FF00018001800303FFC018001800FF880
:100DC0001800180018000FF80000000000000000D4
:100DD0001FF00018001800303FFC018001801FF058
:100DE00000180FF018000FF80000000000000000CD
:100DF0001FF00018001800303FFC018001801FF038
:100E000001980F1818180F9800000000000000004B
:100E10001FF00018001800303FFC018001801FF80F
:100E200001D80FD818D80FF800000000000000000B
:100E30001FF000180018001800303FFC01800180EE
:100E40000FF0181818180FF0000000000000000044
:100E50001F9800D800D800D801983FF8061806F867
:100E60000618180018000FF800000000000000002D
:100E70001F9800D800D800D800D801983FF806186D
:100E8000061806180C1800180000000000000000EA
:100E90001FF0001800180018001800303FFC063042
:100EA000063006300630063000000000000000006A
:100EB0001FF000180018001800303FFC06600660A4
:100EC0000660180018000FF8000000000000000085
:100ED00000001FF000180018001800180018001873
:100EE000001800303FFC000000000000000000007F
:100EF0001FF000180018001800303FFC0000000030
:100F00001FF000180018001800000000000000008A
:100F10001FF000180018001800303FFC000000000F
:100F20001800180018000FF8000000000000000072
:100F30001FF00018001800303FFC000000001FF0F8
:100F400000180FF018000FF800000000000000006B
:100F50001FF000180018001800303FFC00000000CF
:100F60001FF8181818181FF80000000000000000F3
:100F70001FF000180018001800303FFC000018187F
:100F800018181FF818180FF00000000000000000EB
:100F90001FF000180018001800303FFC000000008F
:100FA0000FF0181818180FF00000000000000000E3
:100FB00000183F1801980198019801980318031828
:100FC00006180C1838180018000000000000000077
:100FD0003F1801980198019803180E183818001846
:100FE0000018180018000FF80000000000000000B2
:100FF0003F180198019803180E18381800001FF0C8
:1010000000180FF018000FF80000000000000000AA
:101010003F180198019803180E183818001800009E
:101020001FF8181818181FF8000000000000000032
:101030003F180198019803180E183818001800007E
:101040001FF8066006601FF80000000000000000A6
:1010500000183B980CD80CD80CD80CDE0CD80CD847
:1010600019981998331800180000000000000000BB
:101070003F980CD80CDE0CD81998331800001FF0DC
:1010800000180FF018000FF800000000000000002A
:1010900000D83ED81BD81BD81BD81BF81BD81BD890
:1010A0001BD81BD836D800D8000000000000000074
:1010B00000183B980CD80CD80CD80CF80CD80CD8CD
:1010C000199819983318001800000000000000005B
:1010D0003F980CD80CF80CD8199833180018000059
:1010E0001EF00318031803180000000000000000A1
:1010F0003F980CD80CF80CD8199833180018001821
:101100000180018007E01C380000000000000000A2
:101110003F980CD80CF80CD8199833180018000018
:101120000FF0181818180FF0000000000000000061
:1011300000783E781B781B781B781BF81B781B788F
:101140001B781B7836780078000000000000000053
:101150003F980CF80CD80CF81998331800180000B8
:10116000066006600FF0399C0000000000000000DF
:101170001CF0061807980DB001803FFC000000002D
:101180001FF8181818181FF80000000000000000D1
:101190001CF0061807980DB001803FFC00001818DD
:1011A00018181FF818180FF00000000000000000C9
:1011B0003ED81BD81BD81BD81BD81FF83FD80CD83B
:1011C0000DD83FD800D800D8000000000000000073
:1011D0001EF0031803180318031806303FFC0180A3
:1011E00001800180018001800000000000000000FB
:1011F0001EF003180318031806303FFC018001801D
:101200001FF8181818181FF8000000000000000050
:101210001EF003180318031806303FFC01800180FC
:101220000000018007E01C38000000000000000002
:101230003B980CD80CD80CD80CD819983FF8061845
:10124000061806180C180018000000000000000026
:101250003B980CD80CD80CD819983FF806180618EB
:101260000618180018000FF8000000000000000029
:101270003B980CD80CD819983FF8061806181FF0A0
:1012800000180FF018000FF8000000000000000028
:101290001EF003180318031806303FFC000000007E
:1012A0001800180018000FF80000000000000000EF
:1012B0001EF003180318031806303FFC00000060FE
:1012C0001BFC18F019980FF000000000000000004F
:1012D0001EF00318031806303FFC000000001FF04A
:1012E00000180FF018000FF80000000000000000C8
:1012F0001EF003180318031806303FFC000000001E
:101300001FF8181818181FF800000000000000004F
:101310001EF00318031806303FFC000000000FF811
:1013200018001FF818000FF800000000000000006F
:1013300000183B980CD80CD80CD80CD80CD80CD86A
:1013400019981998331800180000000000000000D8
:101350003F980CD80CD80CD81998331800180000F6
:101360001FF8181818181FF80000000000000000EF
:1013700000183018301830183018301E3018301857
:1013800030181FF8001800180000000000000000CE
:1013900030183018301E301830181FF800180000B0
:1013A0001FF00018001800180000000000000000E6
:1013B000301830183018301E30181FF80018001878
:1013C0000018180018000FF80000000000000000CE
:1013D00030183018301E30181FF8001800001FF0A9
:1013E00000180FF018000FF80000000000000000C7
:1013F00030183018301E301830181FF80018000050
:101400001FF8181818181FF800000000000000004E
:1014100030183018301E301830181FF8001800002F
:10142000066006600FF0399C00000000000000001C
:1014300030183018301E301830181FF8001800000F
:101440000FF0181818180FF000000000000000003E
:1014500030183018301E301830181FF800180000EF
:101460001FF8018007E01C380000000000000000A9
:1014700000D830D830D830D830D830F830D830D83C
:1014800030D81FD800D800D80000000000000000AD
:1014900030D830D830D830D830F81FD800D800D85D
:1014A0001818180018000FF80000000000000000D5
:1014B00030D830D830D830F830D81FD800001FF0DE
:1014C00000180FF018000FF80000000000000000E6
:1014D00030D830D830D830F830D81FD800180000B5
:1014E0001FF8181818181FF800000000000000006E
:1014F00030D830D830D830F830D81FD80018000095
:10150000066006600FF0399C00000000000000003B
:1015100030D830D830D830F830D81FD80018000074
:101520000FF0181818180FF000000000000000005D
:10153000001830183018301E301830183018301E8F
:1015400030181FF80018001800000000000000000C
:10155000001830183018301831F83018301830189A
:1015600030181FF8001800180000000000000000EC
:10157000301831F83018301830181FF800001FF0FC
:1015800000180FF018000FF8000000000000000025
:10159000301831F83018301830181FF800001FD8F4
:1015A00001D80FF818D80FF8000000000000000064
:1015B0003018301831F8301830181FF800180000B3
:1015C0001FF8181818181FF800000000000000008D
:1015D000301831F83018301830181FF80018018012
:1015E0000FF80360063003E0000000000000000078
:1015F00000D830D830D830D833D830D830D830D8D8
:1016000030D81FD800D800D800000000000000002B
:1016100030D830D833D830D830D81FD80018001878
:101620000180018007E01C3800000000000000007D
:10163000301830F83018301830F830181FD800182B
:101640000018180018000FF800000000000000004B
:10165000301830F8301830F830181FF80018000033
:101660001FF8181818181FF80000000000000000EC
:10167000000018001800180018000FF80180018001
:10168000018001803FFC000000000000000000001D
:101690001800180018000FF8018001803FFC0000BE
:1016A0000000180018000FF8000000000000000003
:1016B000180018000FF8018001803FFC00000000B6
:1016C0001FF8181818181FF800000000000000008C
:1016D000180018000FF8018001803FFC0000000096
:1016E0000FF0181818180FF000000000000000009C
:1016F000180018000FF8018001803FFC0000000076
:101700001FF8066006601FF80000000000000000DF
:10171000180018000FF801803FFC000003C0000013
:101720001FF806600C3007E0000000000000000019
:101730003018301830181FDE061806183FF8000061
:10174000066006600FF0399C0000000000000000F9
:1017500030183018301830181FD80018061806181E
:1017600006183FF8001800180000000000000000F4
:101770001800180018000FF8000000003FFC01805E
:101780000180018001800180000000000000000055
:10179000180018000FF8000000003FFC01800180D5
:1017A0001980180018000FF8000000000000000069
:1017B0003018301830181FD8001800183FF80618D5
:1017C000061806180C1800180000000000000000A1
:1017D0001800180018000FF8000000003FFC063049
:1017E0000630063006300630000000000000000021
:1017F000180018000FF8000000003FFC06600660AB
:101800001FF8181818181FF800000000000000004A
:10181000000018001800180018000FF80000000061
:10182000000000003FFC000000000000000000007D
:101830001800180018000FF8000000003FFC00001E
:101840001800180018000FF8000000000000000049
:101850001800180018000FF800003FFC00001FF0EF
:1018600000180FF018000FF8000000000000000042
:10187000180018000FF8000000003FFC00000000F6
:101880000FF0181818180FF00000000000000000FA
:101890000018301830183018301830183018301838
:1018A00030181FF8001800180000000000000000A9
:1018B000301830183018301830181FF80018001879
:1018C0001818180018000FF80000000000000000B1
:1018D000301830183018301830181FF800001FF07A
:1018E00000180FF018000FF80000000000000000C2
:1018F000301830183018301830181FF80018001839
:101900000180018007E01C3800000000000000009A
:10191000301830183018301830181FF80018000030
:101920000FF0181818180FF0000000000000000059
:1019300000181FD8301830183018301E30183018E2
:10194000301830181FF800180000000000000000D8
:101950001FD830183018301E30181FF80018001823
:101960000018180018000FF8000000000000000028
:101970001FD83018301E301830181FF8001800001B
:101980000FF8180018000FF8000000000000000019
:101990001FD83018301E30181FF8001800001FF034
:1019A00000180FF018000FF8000000000000000001
:1019B0001FD83018301E30181FF8001800001FF014
:1019C00001980F1818180F98000000000000000080
:1019D0001FD83018301E301830181FF800180000BB
:1019E0001FF8181818181FF8000000000000000069
:1019F0001FD83018301E301830181FF80000181883
:101A000018181FF818180FF0000000000000000060
:101A10001FD83018301E301830181FF8001800007A
:101A20000FF0181818180FF0000000000000000058
:101A300000D81ED830D830D830D830F830D830D888
:101A400030D830D81FD800D80000000000000000B7
:101A500000181F9830183018301831F83018301826
:101A6000301830181FD800180000000000000000D7
:101A70001F983018301830F8301830181FD8001858
:101A80000018180018000FF8000000000000000007
:101A90001F98301830F8301830181FD800001FF089
:101AA00000180FF018000FF8000000000000000000
:101AB0001F98301830F8301830181FD800001FD881
:101AC00001D80FF818D80FF800000000000000003F
:101AD0001F98301830F8301830181FD80018001828
:101AE0000180018007E01C380000000000000000B9
:101AF00000D81ED830D830D830D837D830D830D8E1
:101B000030D830D81FD800D80000000000000000F6
:101B10001ED830D833D830D830D81FD800001FF0A6
:101B200000180FF018000FF800000000000000007F
:101B300000000FF818001800180018000FF80180B6
:101B4000018001803FFC0000000000000000000058
:101B50000FF8180018000FF8018001803FFC00000A
:101B60001FF000180018001800000000000000001E
:101B70000FF8180018000FF8018001803FFC0000EA
:101B80001800180018000FF8000000000000000006
:101B90000FF8180018000FF801803FFC00001FF03C
:101BA00000180FF018000FF80000000000000000FF
:101BB0000FF8180018000FF801803FFC00001818FB
:101BC00018181FF818180FF000000000000000009F
:101BD0000FF8180018000FF8018001803FFC00008A
:101BE0000FF0181818180FF0000000000000000097
:101BF0001FD830D830D81FF80CD80CD83FD80018D0
:101C0000066006600FF0399C000000000000000034
:101C10001FD830183018301830181FD8061806187A
:101C200006183FF80018001800000000000000002F
:101C30001FD8301830181FD8061806183FF800189B
:101C40001818180018000FF800000000000000002D
:101C50001FD8301830181FD806183FF800001FF0A2
:101C600000180FF018000FF800000000000000003E
:101C70001FD8301830181FD8061806183FF8000073
:101C80001FF8181818181FF80000000000000000C6
:101C90000FF81800180018000FF8000000003FFCB3
:101CA0000180018001800180000000000000000030
:101CB0000FF8180018000FF800003FFC01800180A9
:101CC0001FF00018001800180000000000000000BD
:101CD0000FF8180018000FF8000000003FFC01800A
:101CE0000180198018000FF80000000000000000BB
:101CF0000FF8180018000FF800003FFC01801FF0DB
:101D000000180FF018000FF800000000000000009D
:101D10001FD83018301830181FD8001800183FF896
:101D2000061806180C18001800000000000000003B
:101D30001FD8301830181FD800183FF8061806189A
:101D40000180018007E01C38000000000000000056
:101D50000FF81800180018000FF8000000003FFCF2
:101D600006600660066006600000000000000000DB
:101D700000000FF818001800180018000FF80000F5
:101D8000000000003FFC0000000000000000000018
:101D90000FF8180018000FF800003FFC00000000CA
:101DA0001FF00018001800180000000000000000DC
:101DB0000FF8180018000FF8000000003FFC0000AA
:101DC0001800180018000FF80000000000000000C4
:101DD0000FF8180018000FF800003FFC000000008A
:101DE0000FF8180018000FF80000000000000000B5
:101DF0000FF8180018000FF800003FFC00001FF05B
:101E000000180FF018000FF800000000000000009C
:101E10000FF8180018000FF800003FFC0000000049
:101E20001FF8181818181FF8000000000000000024
:101E30000FF8180018000FF800003FFC00001818F9
:101E400018181FF818180FF000000000000000001C
:101E50000FF8180018000FF800003FFC0000000009
:101E60000180018007E01C38000000000000000035
:101E70000FF8180018000FF800003FFC00000000E9
:101E80000FF0181818180FF00000000000000000F4
:101E900000181FD830183018301830183018301883
:101EA000301830181FF80018000000000000000073
:101EB0001FD830183018301830181FF800180018C4
:101EC0000018180018000FF80000000000000000C3
:101ED0001FD830183018301830181FF800180000BC
:101EE0000FF0181818180FF0000000000000000094
:101EF00000181DF8331833183318331E33183318ED
:101F0000331833181FF8001800000000000000000C
:101F10001DF833183318331E331833181FF8001800
:101F20000018180018000FF8000000000000000062
:101F30001DF83318331E331833181FF800001FF034
:101F400000180FF018000FF800000000000000005B
:101F50001DF83318331E331833181FF8001800000B
:101F60000FF0181818180FF0000000000000000013
:101F700000D81FD836D836D836D836F836D836D81E
:101F800036D836D81FD800D8000000000000000066
:101F900000181DD833183318331833783318331812
:101FA000331833181FF8001800000000000000006C
:101FB0001DD8331833783318331833181FF8001826
:101FC0000018180018000FF80000000000000000C2
:101FD0001DD833183378331833181FF800001FF05A
:101FE00000180FF018000FF80000000000000000BB
:101FF0001DD833183378331833181FF800180180B0
:102000000FF80360063003E000000000000000004D
:1020100000781FF836783678367837F8367836789C
:10202000367836781FF800780000000000000000C5
:1020300000000F7818C018C018C018C00F780180B1
:10204000018001803FFC0000000000000000000053
:102050000F7818C018C018C00F78000000003FFCAF
:10206000018001800180018000000000000000006C
:102070000F7818C018C00F7800003FFC0180018065
:102080000FF0181818180FF00000000000000000F2
:102090001DF83318331833181FF800183FF80618C6
:1020A000061806180C1800180000000000000000B8
:1020B00000000F7818C018C018C018C00F780000B2
:1020C000000000003FFC00000000000000000000D5
:1020D0000F7818C018C00F78000000003FFC000007
:1020E0000000180018000FF80000000000000000B9
:1020F0000F7818C018C00F78000000003FFC0000E7
:102100000180018007E01C38000000000000000092
:102110001DF833183318331833181FF80018001837
:1021200000183FF800180018000000000000000030
:1021300000183F180198019801981F1E3018301898
:10214000301830181FF800180000000000000000D0
:102150003F9800D81F9E301830181FF80018000054
:102160001FF0001800180018000000000000000018
:102170003F18019801981F1E301830181FF80018DA
:102180001818180018000FF80000000000000000E8
:102190003F9800D81F9E301830181FF80018000014
:1021A0001FF8181818181FF80000000000000000A1
:1021B0003F9800D81F9E301830181FF800180000F4
:1021C000066006600FF0399C00000000000000006F
:1021D0003F9800D81F9E301830181FF800180000D4
:1021E0000FF0181818180FF0000000000000000091
:1021F00000D83CD806D806D806D81CF830D830D835
:1022000030D830D81FD800D80000000000000000EF
:102210003ED803D81ED830F830D81FD80018000098
:102220001FF0001800180018000000000000000057
:102230003CD806D806D81CD830F830D81FD800D8DB
:102240000018180018000FF800000000000000003F
:102250003ED803D81ED830F830D81FD80018001840
:102260000180018007E01C38000000000000000031
:102270003F9800D81F9E301830181FFE001800002D
:102280001FF00018001800180000000000000000F7
:102290003F9800D81F9E301830181FFE001800000D
:1022A0000FF0181818180FF00000000000000000D0
:1022B00000183F180198019801981F7830183018BD
:1022C000301830181FD8001800000000000000006F
:1022D0003F18019801981F78301830181FD800183F
:1022E0001818180018000FF8000000000000000087
:1022F0003F1801981F78301830181FD800001FF0C1
:1023000000180FF018000FF8000000000000000097
:102310003F1801981F78301830181FD80018000097
:102320001FF8181818181FF800000000000000001F
:102330003F1801981F78301830181FD8000018185F
:1023400018181FF818180FF0000000000000000017
:102350003F1801981F78301830181FD80018000057
:10236000066006600FF0399C0000000000000000CD
:102370003F1801981F78301830181FD80018000037
:102380000FF0181818180FF00000000000000000EF
:102390003F1801981F78301830181FD80018018096
:1023A0000FF80360063003E00000000000000000AA
:1023B00000D83CD806D806D806D81FD830D830D890
:1023C00030D830D81FD800D800000000000000002E
:1023D0003CD806D806D81FD830D830D81FD800D857
:1023E0000018180018000FF800000000000000009E
:1023F00000183F18019801F801981F18301830781C
:10240000301830181FD8001800000000000000002D
:102410003F1801F81F18307830181FD80018000036
:102420001FF0001800180018000000000000000055
:102430003F1801F801981F18307830181FF800185D
:102440000018180018000FF800000000000000003D
:102450003F1801F81F1830F830181FD800001FF07F
:1024600000180FF018000FF8000000000000000036
:102470003F1801F81F1830F830181FD80018000056
:102480001FF8181818181FF80000000000000000BE
:102490003F1801F81F18307830181FD800180000B6
:1024A00018181FF818180FF00000000000000000B6
:1024B0003F1801F81F1830F830181FD80018000016
:1024C000066006600FF0399C00000000000000006C
:1024D0003F1801F81F1830F830181FD800180000F6
:1024E0000FF0181818180FF000000000000000008E
:1024F00000D83CD806D807D806D81CD830D833D84E
:1025000030D830D81FD800D80000000000000000EC
:1025100000001FF0001800180FF0180018000FF846
:10252000018001803FFC000000000000000000006E
:102530001FF000180FF018000FF801803FFC00009A
:102540001FF0001800180018000000000000000034
:102550001FF000180FF018000FF8018001803FFCF9
:102560000000180018000FF8000000000000000034
:102570001FF000180FF018000FF8018001803FFCD9
:1025800000180FF018000FF8000000000000000015
:102590001FF000180FF018000FF8018001803FFCB9
:1025A00018181FF818180FF00000000000000000B5
:1025B0001FF000180FF018000FF801803FFC00001A
:1025C0000000018007E01C3800000000000000004F
:1025D0001FF000180FF018000FF801803FFC0000FA
:1025E0000FF0181818180FF000000000000000008D
:1025F00000001FF0001800180FF0180018000FF866
:10260000066006603FFC00000000000000000000C3
:102610001FF000180FF0180018000FF800003FFC22
:1026200001800180018001800000000000000000A6
:102630001FF000180FF018000FF800003FFC018099
:102640000180198018000FF8000000000000000051
:102650001FF000180FF018000FF800003FFC018079
:102660001FF8181818181FF80000000000000000DC
:102670001FF000180FF018000FF800003FFC018059
:1026800018181FF818180FF00000000000000000D4
:102690003F9800D81F98301830181FD800183FF8FE
:1026A000061806F806180C180000000000000000CC
:1026B0001FF000180FF0180018000FF800003FFC82
:1026C0000660066006600660000000000000000072
:1026D0001FF000180FF018003FFC066006601FF0A6
:1026E00000180FF018000FF80000000000000000B4
:1026F0001FF000180FF018000FF800003FFC0660F4
:102700001FF8181818181FF800000000000000003B
:1027100000001FF0001800180FF0180018000FF844
:10272000000000003FFC000000000000000000006E
:102730001FF000180FF0180018000FF800003FFC01
:102740000000180018000FF8000000000000000052
:102750001FF000180FF018003FFC000000001FF0F1
:1027600000180FF018000FF8000000000000000033
:102770001FF000180FF018000FF800003FFC0000D9
:102780001FF8181818181FF80000000000000000BB
:102790001FF000180FF018000FF800003FFC0000B9
:1027A00018181FF818180FF00000000000000000B3
:1027B00000183F180198019801981F183018301818
:1027C000301830181FD8001800000000000000006A
:1027D0003F9800D81F98301830181FF800180000D4
:1027E0001FF0001800180018000000000000000092
:1027F0003F18019801981F18301830181FF800185A
:102800000018180018000FF8000000000000000079
:102810003F9800D81F98301830181FF800001FF09C
:1028200000180FF018000FF8000000000000000072
:102830003F9800D81F98301830181FF80018000073
:102840001FF8181818181FF80000000000000000FA
:102850003F9800D81F98301830181FF8000018183B
:1028600018181FF818180FF00000000000000000F2
:102870003F9800D81F98301830181FF8001800181B
:102880000180018007E01C3800000000000000000B
:1028900000183F98319831983198319E319831988D
:1028A000319831983F9800180000000000000000A7
:1028B0003F983198319E319831983F980018000028
:1028C0001FF00018001800180000000000000000B1
:1028D0003F9831983198319E31983F9800180018F0
:1028E0000018180018000FF8000000000000000099
:1028F0003F983198319E319831983F9800F0000010
:102900001BFC18F019980FF00000000000000000F8
:102910003F983198319E31983F98001800001FF081
:1029200000180FF018000FF8000000000000000071
:102930003F983198319E319831983F9800180000A7
:102940001FF8181818181FF80000000000000000F9
:102950003F983198319E319831983F98001800186F
:102960000180018007E01C3800000000000000002A
:102970003F983198319E319831983F980018000067
:102980000FF0181818180FF00000000000000000E9
:102990003F983198319E319831983F980018000047
:1029A0001FF8018007E01C38000000000000000054
:1029B0003F983198319E31983F98001800000FF8E9
:1029C00018001FF818000FF80000000000000000B9
:1029D00000D83ED836D836D836D836F836D836D895
:1029E00036D836D83ED800D80000000000000000DD
:1029F0003ED836D836D836F836D83ED8001800003B
:102A00001FF000180018001800000000000000006F
:102A100000183F9831983198319831F831983198B1
:102A2000319831983F980018000000000000000025
:102A30003F98319831F8319831983F980018001834
:102A40001818180018000FF800000000000000001F
:102A50003F98319831F8319831983F980018001814
:102A60000180018007E01C38000000000000000029
:102A700000D83ED836D836D836D837D836D836D813
:102A800036D836D83ED800D800000000000000003C
:102A90003ED836D836D837D836D836D83ED800D8EB
:102AA0000018180018000FF80000000000000000D7
:102AB0003ED836D837D836D836D83ED80018000099
:102AC0001FF8181818181FF8000000000000000078
:102AD00000183F98319831F831983198319831F891
:102AE000319831983F980018000000000000000065
:102AF0003F9831F83198319831F83F980018001814
:102B00001818180018000FF800000000000000005E
:102B10003F9831F83198319831F83F98001800000B
:102B20000FF0181818180FF0000000000000000047
:102B30003F9831F8319831F83F98001803D80000D9
:102B40001FF8018007E01C380000000000000000B2
:102B500000001FF818181818181818181FF8018006
:102B6000018001803FFC0000000000000000000028
:102B70001FF8181818181FF8018001803FFC00008A
:102B80001FF00018001800180000000000000000EE
:102B90001FF8181818181FF801803FFC00001FF0DC
:102BA00000180FF018000FF80000000000000000EF
:102BB0001FF8181818181FF8018001803FFC00004A
:102BC0001FF8181818181FF8000000000000000077
:102BD0001FF8181818181FF8018001803FFC00002A
:102BE0000180018007E01C380000000000000000A8
:102BF0001FF8181818181FF8018001803FFC00000A
:102C00000FF0181818180FF0000000000000000066
:102C10001FF81818181818181FF8000000003FFCBB
:102C200001800180018001800000000000000000A0
:102C30001FF8181818181FF800003FFC01800180C9
:102C40001FF000180018001800000000000000002D
:102C50001FF8181818181FF800003FFC01800180A9
:102C60001EF0031803180318000000000000000005
:102C70001FF8181818181FF8000000003FFC01800A
:102C80000180198018000FF800000000000000000B
:102C90001FF8181818181FF800003FFC01801FF0DB
:102CA00000180FF018000FF80000000000000000EE
:102CB0001FF8181818181FF800003FFC0180018049
:102CC0000FF0181818180FF00000000000000000A6
:102CD0003FD830D830D830D83FD800183FF8061841
:102CE00006F806180C18001800000000000000008C
:102CF0003FD830D830D83FD800183FF8061806F82B
:102D00000618180018000FF800000000000000006E
:102D10001FF81818181818181FF8000000003FFCBA
:102D2000066006600660066000000000000000000B
:102D300000001FF818181818181818181FF80000A5
:102D4000000000003FFC0000000000000000000048
:102D500000183F98319831983198319831983198CE
:102D6000319831983F9800180000000000000000E2
:102D70003F9831983198319831983F980018001851
:102D80001818180018000FF80000000000000000DC
:102D90003F9831983198319831983F980018000049
:102DA0000FF8180018000FF80000000000000000E5
:102DB0003F983198319831983F98001800001FF0E3
:102DC00000180FF018000FF80000000000000000CD
:102DD0003F9831983198319831983F9800180018F1
:102DE0000180018007E01C380000000000000000A6
:102DF0003F983198319831983F98001803C00000EF
:102E00001FF8018007E01C380000000000000000EF
:102E10003F983198319831983F98001800000FF88A
:102E200018001FF818000FF8000000000000000054
:102E3000001831983198319831983F9E31983198E7
:102E4000319831981F1800180000000000000000A1
:102E5000319831983F9E319831981F180018000022
:102E60001FF000180018001800000000000000000B
:102E7000319831983F9E319831981F180018000002
:102E80001EF00318031803180000000000000000E3
:102E9000319831983F98319E319831981F18001819
:102EA0001818180018000FF80000000000000000BB
:102EB000319831983F9E319831981F1800180000C2
:102EC0000FF8180018000FF80000000000000000C4
:102ED000319831983F9E319831981F1800001FF0AB
:102EE00000180FF018000FF80000000000000000AC
:102EF000319831983F9E319831981F1800001FF08B
:102F000001980F1818180F9800000000000000002A
:102F1000319831983F9E319831981F1800001FD882
:102F200001D80FF818D80FF80000000000000000CA
:102F3000319831983F9E319831981F180018000041
:102F40001FF8181818181FF80000000000000000F3
:102F5000319831983F9E319831981F180018000021
:102F600018181FF818180FF00000000000000000EB
:102F7000319831983F9E319831981F180018000001
:102F80000FF0181818180FF00000000000000000E3
:102F900000D836D836D836D836D83EF836D836D8CF
:102FA00036D836D81CD800D8000000000000000039
:102FB00036D836D83ED836F836D81CD80018000097
:102FC0001FF00018001800180000000000000000AA
:102FD0006DB06DB07DB06DF06DB039B000300000F7
:102FE0001FE0303030301FE0000000000000000023
:102FF000001831983198319831983FF831983198CC
:10300000319831981F1800180000000000000000DF
:10301000319831983FF83198319831981F1800183D
:103020000018180018000FF8000000000000000051
:10303000319831983FF8319831981F1800001FF0EF
:1030400000180FF018000FF800000000000000004A
:10305000319831983FF8319831981F1800180000C6
:103060001FF8181818181FF80000000000000000D2
:10307000319831983FF8319831981F1800180000A6
:1030800018181FF818180FF00000000000000000CA
:10309000319831983FF8319831981F18001800186E
:1030A0000180018007E01C380000000000000000E3
:1030B00000D836D836D836D836D83FD836D836D8CD
:1030C00036D836D81CD800D8000000000000000018
:1030D00036D836D83ED837D836D836D81CD800D8C7
:1030E0000018180018000FF8000000000000000091
:1030F000319831F83F9831F831981F1800180000C6
:103100001FF0001800180018000000000000000068
:10311000319831F83F98319831F831981F180018DC
:103120001818180018000FF8000000000000000038
:10313000319831F83F9831F831981F1800001FF08E
:1031400000180FF018000FF8000000000000000049
:10315000319831F83F9831F831981F180018000065
:103160000FF0181818180FF0000000000000000001
:103170000000181818181FF8181818180FF00180F8
:10318000018001803FFC0000000000000000000002
:1031900018181FF818180FF0018001803FFC00007C
:1031A0001FF00018001800180000000000000000C8
:1031B00018181FF8181818180FF0018001803FFC2C
:1031C0000000180018000FF80000000000000000C8
:1031D00018181FF818180FF001803FFC00001FF0AE
:1031E00000180FF018000FF80000000000000000A9
:1031F00018181FF818180FF0018001803FFC00001C
:103200000FF0181818180FF0000000000000000060
:1032100030D830D83FD830D830D81F9E061806187E
:1032200006183FF800180018000000000000000019
:10323000181818181FF818180FF0000000003FFCAD
:10324000018001800180018000000000000000007A
:1032500018181FF818180FF000003FFC01800180BB
:103260001FF0001800180018000000000000000007
:1032700018181FF818180FF0000000003FFC01801C
:103280000180198018000FF8000000000000000005
:1032900018181FF818180FF000003FFC01801FF0ED
:1032A00000180FF018000FF80000000000000000E8
:1032B00018181FF818180FF000003FFC01800FF8D5
:1032C00018001FF818000FF80000000000000000B0
:1032D000181818181FF818180FF0000000003FFC0D
:1032E0000660066006600660000000000000000046
:1032F0000000181818181FF8181818180FF00000F8
:10330000000000003FFC0000000000000000000082
:1033100018181FF818180FF000003FFC00001FF0ED
:1033200000180FF018000FF8000000000000000067
:10333000001831983198319831983F9831983198E8
:10334000319831981F18001800000000000000009C
:10335000319831983F98319831981F180018000023
:103360001FF0001800180018000000000000000006
:10337000319831983F98319831981F1800001FF00C
:1033800000180FF018000FF8000000000000000007
:10339000319831983F98319831981F1800180018CB
:1033A0000180018007E01C380000000000000000E0
:1033B000319831983F98319831981F1800180000C3
:1033C0001FF8018007E01C3800000000000000002A
:1033D000319831983F98319831981F18001803C0E0
:1033E00000001FF803C01E7800000000000000006D
:1033F00000183FD83FD83FD83FD83FDE3FD83FD80E
:103400003FD83FD8199800180000000000000000C5
:1034100000D83FD83FD83FD83FD83FF83FD83FD813
:103420003FD83FD81ED800D80000000000000000A0
:103430003FD83FD83FF83FD83FD819980018000030
:103440000FF8180018000FF800000000000000003E
:103450001BD81FF81BD81BD80FF001803FFC0000C1
:103460001FF8181818181FF80000000000000000CE
:103470001BD81FF81BD81BD80E70000000003FFCA3
:103480000180018001800180000000000000000038
:103490001BD81FF81BD81BD80E7000003FFC018002
:1034A0000180198018000FF80000000000000000E3
:1034B0001BD81FF81BD81BD80E7000003FFC000063
:1034C0000000180018000FF80000000000000000C5
:1034D000001806180618061806180E1E0F180F18E2
:1034E0001998199830D8001800000000000000005A
:1034F0000618061806180F1E0D9818D83018001850
:103500000018180018000FF800000000000000006C
:10351000061806180F1E0D9818D8301800001FF056
:1035200000180FF018000FF8000000000000000065
:10353000061806180F1E0D9818D8301800001FF82E
:1035400001D80FD818D80FF80000000000000000C4
:1035500006180618061E0F180D9818D83018000007
:103560001FF8181818181FF80000000000000000CD
:1035700006180618061E0F180D9818D830180000E7
:10358000066006600FF0399C00000000000000009B
:1035900006180618061E0F180D9818D830180000C7
:1035A0000FF0181818180FF00000000000000000BD
:1035B00000D80CD80CD80CD80CD80CF81CD81ED8B5
:1035C0001ED833D833D800D8000000000000000017
:1035D0000CD80CD80CD81EF81ED833D80018000010
:1035E0001FF0001800180018000000000000000084
:1035F0000CD80CD80CD80CD81EF81ED833D800D84C
:103600000018180018000FF800000000000000006B
:103610000CD80CD80CD81EF81ED833D800180000CF
:103620001FF8181818181FF800000000000000000C
:103630000CD80CD80CD81EF81ED833D800180000AF
:103640000FF0181818180FF000000000000000001C
:10365000001806180618061E06180E180F180F1E5A
:103660001998199830D800180000000000000000D8
:10367000001806180618061806180FF80F180F1865
:103680001998199830D800180000000000000000B8
:103690000618061806F80F180D9818D830180000EC
:1036A0001FF00018001800180000000000000000C3
:1036B0000618061806F80F180D9818D830180018B4
:1036C0000018180018000FF80000000000000000AB
:1036D000061806180FF80D9818D8301800001FF0BB
:1036E00000180FF018000FF80000000000000000A4
:1036F0000618061806F80F180D9818D8301800008C
:103700001FF8181818181FF800000000000000002B
:103710000618061806F80F180D9818D8301800006B
:1037200018181FF818180FF0000000000000000023
:103730000618061806F80F180D9818D83018001833
:103740000180018007E01C3800000000000000003C
:103750000618061806F80F180D9818D8301800002B
:10376000066006600FF0399C0000000000000000B9
:103770000618061806F80F180D9818D8301800000B
:103780000FF0181818180FF00000000000000000DB
:1037900000D80CD80CD80CD80CD80FD81CD81ED8F0
:1037A0001ED833D833D800D8000000000000000035
:1037B0000CD80CD80CD80FD81ED81ED833D800D8A7
:1037C0000018180018000FF80000000000000000AA
:1037D0000CD80CD81FD81ED833D800D800001FF042
:1037E00000180FF018000FF80000000000000000A3
:1037F00000180618061806F806180E180F180FF805
:103800001998199830D80018000000000000000036
:103810000618067806180F180DF818D83018001872
:103820000018180018000FF8000000000000000049
:10383000061806F80F180DF818D8301800001FF0F9
:1038400000180FF018000FF8000000000000000042
:1038500000000180018003C003C006601C380180A5
:10386000018001803FFC000000000000000000001B
:10387000018003C006601C38018001803FFC00000D
:103880001FF00018001800180000000000000000E1
:10389000018003C006601C38018001803FFC0000ED
:1038A0000000180018000FF80000000000000000E1
:1038B000018003C006601DB801803FFC00001FF0BE
:1038C00000180FF018000FF80000000000000000C2
:1038D000018003C006601C38018001803FFC0000AD
:1038E0000FF0181818180FF000000000000000007A
:1038F0000CD80CD80CD81ED81ED833F80CD80CD83D
:103900000CD83FD800D800D800000000000000000C
:103910000618061806180F180F18199836D8061822
:1039200006183FF800180018000000000000000012
:1039300000000180018003C003C006601C380660DF
:10394000066006603FFC0000000000000000000070
:103950000180018003C006601C38000000003FFCAD
:103960000180018001800180000000000000000053
:10397000018003C006601C3800003FFC018001800C
:103980001FF00018001800180000000000000000E0
:10399000018003C006601C38000000003FFC01806D
:1039A0000180198018000FF80000000000000000DE
:1039B000018003C006601C3800003FFC01801FF03E
:1039C00000180FF018000FF80000000000000000C1
:1039D000018003C006601C3800003FFC01800FF826
:1039E00018001FF818000FF8000000000000000089
:1039F000061806180F18199830D800183FF806183E
:103A0000061806180C18001800000000000000003E
:103A1000061807180D9838D800183FF80618060041
:103A200018181FF818180FF0000000000000000020
:103A30000180018003C006601C38000000003FFCCC
:103A400006600660066006600000000000000000DE
:103A5000018003C006601C3800003FFC0660066061
:103A60001FF8181818181FF80000000000000000C8
:103A700000000180018003C003C006601C38000004
:103A8000000000003FFC00000000000000000000FB
:103A9000018003C006601C38000000003FFC0000ED
:103AA0001800180018000FF80000000000000000C7
:103AB000018003C006601C3800003FFC00001FF0BE
:103AC00000180FF018000FF80000000000000000C0
:103AD000018003C006601C3800003FFC00000000AD
:103AE0001FF8181818181FF8000000000000000048
:103AF000018003C006601C3800003FFC000018185D
:103B000018181FF818180FF000000000000000003F
:103B1000018003C006601C3800003FFC000000006C
:103B20000FF0181818180FF0000000000000000037
:103B3000001806180618061806180E180F180F1881
:103B40001998199830D800180000000000000000F3
:103B50000618061806180F180D9818D83018000007
:103B60001FF00018001800180000000000000000FE
:103B70000618061806180F180D9818D830180018CF
:103B80000018180018000FF80000000000000000E6
:103B90000618061806180F180D9818D830180000C7
:103BA0000FF8180018000FF80000000000000000D7
:103BB000061806180F180D9818D8301800001FF0B6
:103BC00000180FF018000FF80000000000000000BF
:103BD000061806180F180D9818D8301800701F0016
:103BE00001FC0F7018D80FF000000000000000006A
:103BF0000618061806180F180D9818D83018000067
:103C00001FF8181818181FF8000000000000000026
:103C10000618061806180F180D9818D83018000046
:103C200018181FF818180FF000000000000000001E
:103C30000618061806180F180D9818D83018000026
:103C40000FF0181818180FF0000000000000000016
:103C50000618061806180F180D9818D83018000006
:103C60001FF8066006601FF800000000000000005A
:103C700000180D980D980D980D980D9E1FD81BD803
:103C800036783678001800180000000000000000A8
:103C90000D980D980D9E1FD81BD83678001800007F
:103CA0001FF00018001800180000000000000000BD
:103CB0000D980D981D9E1FD836D800180018018049
:103CC0000FF80360063003E0000000000000000071
:103CD00000180D980D980D980D980DF81FD81BD849
:103CE0003678367800180018000000000000000048
:103CF0000D980D980DF81FD81BD8367800180000C5
:103D00000FF0181818180FF0000000000000000055
:103D1000066006600FF01998018001803FFC0000EA
:103D20000FF8180018000FF8000000000000000055
:103D3000066006600FF0199800003FFC01800180CA
:103D40001FF000180018001800000000000000001C
:103D500000000660066006600FF00FF01998000082
:103D6000000000003FFC0000000000000000000018
:103D70000660066006600FF0199800003FFC000026
:103D80000000180018000FF80000000000000000FC
:103D9000066006600FF0199800003FFC00001FF05D
:103DA00000180FF018000FF80000000000000000DD
:103DB000066006600FF0199800003FFC000000004C
:103DC0001FF8181818181FF8000000000000000065
:103DD0000D980D980D981FD81BD83678001800182C
:103DE00000183FF800180018000000000000000054
:103DF00000180D980D980D980D980D981FD81BD888
:103E00003678367800180018000000000000000026
:103E10000D980D980D981FD81BD836780018000003
:103E20001FF000180018001800000000000000003B
:103E30000D980D980D980D981FD81BD8367800183E
:103E40000018180018000FF8000000000000000023
:103E500000181F18319831983198319E3198319857
:103E6000319831981F180018000000000000000071
:103E70001F183198319E319831981F180018000092
:103E80001FF00018001800180000000000000000DB
:103E90001F1831983198319E31981F18001800185A
:103EA0001818180018000FF80000000000000000AB
:103EB0001F183198319E319831981F180018000052
:103EC00019F8186018F00F980000000000000000BA
:103ED0001F183198319E319831981F1800F000005A
:103EE0001BFC18F019980FF0000000000000000003
:103EF0001F183198319E31981F18001800001FF0CC
:103F000000180FF018000FF800000000000000007B
:103F10001F183198319E319831981F1800180000F1
:103F20001FF8181818181FF8000000000000000003
:103F30001F183198319E319831981F1800180000D1
:103F400018181FF818180FF00000000000000000FB
:103F50001F183198319E319831981F1800180000B1
:103F6000066006600FF0399C0000000000000000B1
:103F70001F183198319E319831981F180018000091
:103F80000FF0181818180FF00000000000000000D3
:103F90001F183198319E319831981F180018000071
:103FA0001FF8066006601FF8000000000000000017
:103FB00000D81CD836D836D836D836F836D836D8C1
:103FC00036D836D81CD800D8000000000000000009
:103FD0001CD836D836D836F836D81CD80018000089
:103FE0001FF000180018001800000000000000007A
:103FF0001CD836D836D836F836D81CD80018000069
:1040000018181FF818180FF000000000000000003A
:1040100000181F183198319E319831983198319E8F
:10402000319831981F1800180000000000000000AF
:104030001F183198319E319831981F1E00180000CA
:104040001FF0001800180018000000000000000019
:104050001F183198319E319831981F1E00180000AA
:104060000FF0181818180FF00000000000000000F2
:1040700000D81CD836D836F836D836D836D836F8E0
:1040800036D836D81CD800D8000000000000000048
:1040900000181F1831983198319831F831983198BB
:1040A000319831981F18001800000000000000002F
:1040B0001F18319831F8319831981F1800180000F6
:1040C0001FF0001800180018000000000000000099
:1040D0001F18319831F8319831981F1800180018BE
:1040E0001818180018000FF8000000000000000069
:1040F0001F18319831F8319831981F1800180000B6
:104100000FF8180018000FF8000000000000000071
:104110001F18319831F831981F18001800001FF04F
:1041200000180FF018000FF8000000000000000059
:104130001F18319831F8319831981F180018000075
:104140001FF8181818181FF80000000000000000E1
:104150001F18319831F8319831981F180018000055
:1041600018181FF818180FF00000000000000000D9
:104170001F18319831F8319831981F18000019B084
:1041800019B01FB019F80FCC0000000000000000AB
:104190001F18319831F8319831981F1800180018FD
:1041A0000180018007E01C380000000000000000D2
:1041B0001F18319831F8319831981F1800180000F5
:1041C000066006600FF0399C00000000000000004F
:1041D00000D81CD836D836D836D837D836D836D8BE
:1041E00036D836D81CD800D80000000000000000E7
:1041F0001CD836D836D837D836D836D81CD800D8B8
:104200000018180018000FF800000000000000005F
:104210001CD836D837D836D836D81CD800001FF06E
:1042200000180FF018000FF8000000000000000058
:1042300000181F18319831F831983198319831F8B9
:10424000319831981F18001800000000000000008D
:104250001F1831F83198319831F81F1800180000F4
:104260001FF00018001800180000000000000000F7
:104270001F1831F83198319831F81F1800180018BC
:104280001818180018000FF80000000000000000C7
:104290001F1831F8319831F81F18001800001FF06E
:1042A00000180FF018000FF80000000000000000D8
:1042B0001F1831F8319831F831981F180018000094
:1042C00018181FF818180FF0000000000000000078
:1042D0001F1831F8319831F831981F180018000074
:1042E000066006600FF0399C00000000000000002E
:1042F0001F1831F8319831F831981F180018000054
:104300000FF0181818180FF000000000000000004F
:1043100000D81CD836D837D836D836D836D837D87B
:1043200036D836D81CD800D80000000000000000A5
:104330001CD837D836D837D836D81CD8001800182B
:104340000180018007E01C38000000000000000030
:10435000000007E00C30181818180C3007E0018036
:10436000018001803FFC0000000000000000000010
:104370000FF0181818180FF0018001803FFC0000A2
:104380001FF00018001800180000000000000000D6
:104390000FF0181818180FF0018001803FFC000082
:1043A0000000180018000FF80000000000000000D6
:1043B0000FF0181818180FF001803FFC00001FF0D4
:1043C00000180FF018000FF80000000000000000B7
:1043D0000FF0181818180FF001803FFC00001FF0B4
:1043E00001980F1818180F98000000000000000036
:1043F0000FF0181818180FF001803FFC00001FF88C
:1044000001D80FD818D80FF80000000000000000F5
:104410000FF0181818180FF0018001803FFC000001
:104420000FF0181818180FF000000000000000002E
:104430000F18199830D830D819980F1E061806187A
:1044400006183FF8001800180000000000000000E7
:104450001F9830D830D81F9E061806183FF800184D
:104460000018180018000FF80000000000000000FD
:104470001F9830D830D81F9E061806183FF8000045
:10448000066006600FF0399C00000000000000008C
:104490001ED833D833D833D833D81EF80CD80CD81C
:1044A0000CD83FD800D800D8000000000000000061
:1044B0000F18199830D830D819980F180618061800
:1044C00006183FF800180018000000000000000067
:1044D0000FCC186C186C0FCC030C030C1FFC000CD9
:1044E00000000C000C0007FC0000000000000000B1
:1044F000000007E00C30181818180C3007E00660B0
:10450000066006603FFC00000000000000000000A4
:104510000FF0181818180FF0066006603FFC000036
:104520001FF0001800180018000000000000000034
:104530000FF0181818180FF0066006603FFC000016
:104540000FF0181818180FF000000000000000000D
:104550000FF01818181818180FF0000000003FFC92
:104560000180018001800180000000000000000047
:104570000FF0181818180FF000003FFC01800180A0
:104580001FF00018001800180000000000000000D4
:104590000FF0181818180FF0000000003FFC018001
:1045A0000180198018000FF80000000000000000D2
:1045B0000FF0181818180FF000003FFC01801FF0D2
:1045C00000180FF018000FF80000000000000000B5
:1045D0000FF0181818180FF000003FFC0180018040
:1045E0001FF8181818181FF800000000000000003D
:1045F0000FF0181818180FF000003FFC0180018020
:104600000FF0181818180FF000000000000000004C
:104610000F9818D818D818D80F9800183FF806180F
:1046200006F806180C180018000000000000000032
:104630001F9830D830D81F9800183FF8061806F891
:104640000618180018000FF8000000000000000015
:104650000F9818D818F80F9800183FF806001FF0A8
:1046600000180FF018000FF8000000000000000014
:104670000F9818D818D80F9800183FF8067800003F
:10468000066006600FF0399C00000000000000008A
:104690001ED833D833D833D81ED800D83FD80CD83A
:1046A0000FD80CD818D800D8000000000000000077
:1046B0001ED833D833D81ED800D83FD80DD80C0018
:1046C00018181FF818180FF0000000000000000074
:1046D0000F9818D818D818D80F9800183FF806184F
:1046E000061806180C180018000000000000000052
:1046F0000F9818D818D80F9800183FF806181FF010
:1047000000180FF018000FF8000000000000000073
:104710000FF01818181818180FF0000000003FFCD0
:1047200006600660066006600000000000000000F1
:104730000FF0181818180FF000003FFC0660066014
:104740001FF0001800180018000000000000000012
:104750000FF0181818180FF0000000003FFC06605A
:104760000660180018000FF80000000000000000AC
:104770000FF0181818180FF000003FFC06601FF02B
:1047800000180FF018000FF80000000000000000F3
:104790000FF0181818180FF000003FFC06600660B4
:1047A0000FF0181818180FF00000000000000000AB
:1047B000000007E00C30181818180C3007E0000053
:1047C000000000003FFC00000000000000000000AE
:1047D0000FF0181818180FF0000000003FFC000040
:1047E0000000180018000FF8000000000000000092
:1047F0000FF0181818180FF000003FFC00001FF011
:1048000000180FF018000FF8000000000000000072
:104810000FF0181818180FF000003FFC00000000FF
:104820001FF8181818181FF80000000000000000FA
:104830000FF0181818180FF000003FFC00000000DF
:104840000FF0181818180FF000000000000000000A
:104850000F18199830D830D819980F180018001868
:1048600000183FF8001800180000000000000000C9
:1048700000181F1831983198319831983198319833
:10488000319831981F180018000000000000000047
:104890001F1831983198319831981F18001800006E
:1048A0001FF00018001800180000000000000000B1
:1048B0001F1831983198319831981F180018001836
:1048C0000018180018000FF8000000000000000099
:1048D0001F183198319831981F18001800001FF0E8
:1048E00000180FF018000FF8000000000000000092
:1048F0001F183198319831981F18001800001FF0C8
:1049000001980F1818180F98000000000000000010
:104910001F183198319831981F18001800701F0027
:1049200001FC0F7018D80FF000000000000000001C
:104930001F1831983198319831981F1800180000CD
:104940001FF8181818181FF80000000000000000D9
:104950001F1831983198319831981F180000181895
:1049600018181FF818180FF00000000000000000D1
:104970001F1831983198319831981F18001800008D
:10498000066006600FF0399C000000000000000087
:104990001F1831983198319831981F18001800006D
:1049A0000FF0181818180FF00000000000000000A9
:1049B0001F1831983198319831981F18001800004D
:1049C0001FF8018007E01C38000000000000000014
:1049D00000183FD8061806180618061E0F180F18DC
:1049E0001998199830D80018000000000000000045
:1049F0003FD806180E1E0F18199830D8001800005E
:104A00001FF000180018001800000000000000004F
:104A10003FD8061806180F1E0D9818D83018001821
:104A20000018180018000FF8000000000000000037
:104A30003FD806180E1E0F18199830D800000060D5
:104A40001BFC18F019980FF0000000000000000097
:104A50003FD806180E1E0F18199830D800001FF006
:104A600000180FF018000FF8000000000000000010
:104A70003FD806180E1E0F18199830D800180000DD
:104A80001FF8181818181FF8000000000000000098
:104A90003FD806180E1E0F18199830D800180000BD
:104AA00018181FF818180FF0000000000000000090
:104AB0003FD806180E1E0F18199830D8001800009D
:104AC0000FF0181818180FF0000000000000000088
:104AD00000D83FD80CD80CD80CD80CF80CD81ED85D
:104AE0001ED833D833D800D80000000000000000E2
:104AF0003FD80CD80CD81EF81ED833D800180000A8
:104B00000FF0181818180FF0000000000000000047
:104B100000183FD806180618061806F80F180F18C0
:104B20001998199830D80018000000000000000003
:104B30003FD806180EF80F18199830D80018000042
:104B40001FF000180018001800000000000000000E
:104B50003FD80618061806F80F180D9818D8301800
:104B60000018180018000FF80000000000000000F6
:104B70003FD806180EF80F18199830D800001FF00B
:104B800000180FF018000FF80000000000000000EF
:104B90003FD806180EF80F18199830D800180000E2
:104BA0001FF8181818181FF8000000000000000077
:104BB0003FD806180EF80F18199830D800180000C2
:104BC00018181FF818180FF000000000000000006F
:104BD0003FD806180EF80F18199830D800180000A2
:104BE0000FF0181818180FF0000000000000000067
:104BF00000D83FD80CD80CD80CD80FD80CD81ED859
:104C00001ED833D833D800D80000000000000000C0
:104C10003FD80CD80FD81ED81ED833D800180000A3
:104C20001FF000180018001800000000000000002D
:104C300000183FD8061806F8061806180F180FF8BF
:104C40001998199830D800180000000000000000E2
:104C50003FD806780E180F78199830D80018000041
:104C6000066006600FF0399C0000000000000000A4
:104C700000001FF80180018003C006601C3801801D
:104C8000018001803FFC00000000000000000000E7
:104C90001FF803C006601C38018001803FFC000043
:104CA0001FF00018001800180000000000000000AD
:104CB0001FF8018007E01C38018001803FFC0000E4
:104CC0001800180018000FF8000000000000000095
:104CD0001FF8018007E01C38018001803FFC0000C4
:104CE0000FF0181818180FF0000000000000000066
:104CF0001FF8018007E01DB801803FFC0000018023
:104D00001FF806600C3007E0000000000000000003
:104D10003FD8061806180E180F18199E36D8061810
:104D200006183FF8001800180000000000000000FE
:104D30003FD8061806180E180F18199836D80618F6
:104D400006183FF8001800180000000000000000DE
:104D50001FF8018003C006601C38000000003FFC03
:104D6000018001800180018000000000000000003F
:104D70001FF803C006601C3800003FFC0180018062
:104D80001FF00018001800180000000000000000CC
:104D90001FF8018003C01E78000000003FFC018066
:104DA0001980198018000FF80000000000000000B2
:104DB0001FF8018007E01C3800003FFC01801FF055
:104DC00000180FF018000FF80000000000000000AD
:104DD0001FF803C006601C3800003FFC0180018002
:104DE0000FF0181818180FF0000000000000000065
:104DF00000001FF80180018003C006601C3800001D
:104E0000000000003FFC0000000000000000000067
:104E10001FF803C006601C3800003FFC00000000C3
:104E20001FF000180018001800000000000000002B
:104E30001FF8018007E01C38000000003FFC000064
:104E40000000180018000FF800000000000000002B
:104E50001FF8018007E01C3800003FFC00001FF035
:104E600000180FF018000FF800000000000000000C
:104E70001FF803C006601C3800003FFC0000000063
:104E80001FF8181818181FF8000000000000000094
:104E90001FF803C006601C3800003FFC0000000043
:104EA0000FF0181818180FF00000000000000000A4
:104EB00000183FD806180618061806180F180F18FD
:104EC0001998199830D80018000000000000000060
:104ED0003FD806180E180F18199830D8001800007F
:104EE0001FF000180018001800000000000000006B
:104EF0003FD8061806180F180D9818D83018001843
:104F00000018180018000FF8000000000000000052
:104F10003FD806180E180F18199830D800001FF047
:104F200000180FF018000FF800000000000000004B
:104F30003FD806180E180F18199830D8001800001E
:104F40001FF8181818181FF80000000000000000D3
:104F50003FD806180E180F18199830D800180000FE
:104F600018181FF818180FF00000000000000000CB
:104F70003FD806180E180F18199830D800180018C6
:104F80000180018007E01C380000000000000000E4
:104F90003FD806180E180F18199830D800180000BE
:104FA0000FF0181818180FF00000000000000000A3
:104FB00000183FF80D980D980D980D9E0D981FD86C
:104FC0001BD836783678001800000000000000007A
:104FD00000D83FD81ED81ED81ED81EF81ED83ED8DE
:104FE0003FD83FD83FD800D80000000000000000A4
:104FF0003FD81ED81ED83EF83FD83FD80018000032
:10500000066006600FF0399C000000000000000000
:1050100000183FF80D980D980D980DF80D981FD8B1
:105020001BD8367836780018000000000000000019
:105030001FF806600FF01998018001803FFC000006
:105040001FF0001800180018000000000000000009
:105050001FF806600FF0199800003FFC00000000E8
:105060001FF8181818181FF80000000000000000B2
:105070003FF80D980D981FD81BD8367800180000FF
:105080001FF00018001800180000000000000000C9
:1050900000180F1800183FD80618061E06180F181B
:1050A0000F18199830D80018000000000000000008
:1050B0000F1800183FDE06180F1839D80018000026
:1050C0001FF0001800180018000000000000000089
:1050D0000F1800183FD8061E06180F18199830D858
:1050E0000018180018000FF8000000000000000071
:1050F0000F1800183FDE06180F1839D800001FF0EF
:1051000000180FF018000FF8000000000000000069
:105110000F1800183FDE06180F1839D800180000C5
:105120001FF8181818181FF80000000000000000F1
:105130000F1800183FDE06180F1839D800180000A5
:105140000FF0181818180FF0000000000000000001
:105150000F1800183FDE06180F1839D80018000085
:105160001FF8018007E01C3800000000000000006C
:1051700000D81ED800D83FD80CD80CF80CD80CD8C2
:105180001ED81ED833D800D8000000000000000050
:105190001ED800D83FD80CF80CD81ED83318000001
:1051A0001FF00018001800180000000000000000A8
:1051B0001ED800D83FD80CD80CF80CD81ED833D83D
:1051C0000018180018000FF8000000000000000090
:1051D00000180F1800183FD80618061806F80F1800
:1051E0000F18199830D800180000000000000000C7
:1051F0000F1800183FD8061806780F18199830D8DD
:105200000018180018000FF800000000000000004F
:105210000F1800183F9806780F1839D800001FF0B3
:1052200000180FF018000FF8000000000000000048
:105230000F1800183F9806780F1839D8001800008A
:105240001FF8181818181FF80000000000000000D0
:105250000F1800183FD8061806780F1839D800180C
:105260000180018007E01C38000000000000000001
:105270000F1800183F9806780F1839D8001800004A
:105280000FF0181818180FF00000000000000000C0
:105290001ED800D800D83FD80CD80CD80FD80CD8BE
:1052A0001ED81ED833D800D800000000000000002F
:1052B00000180F1800183FD8061806F806180F181F
:1052C0000FF8199830D80018000000000000000006
:1052D0000F1800183FF806180F7839D8001800008A
:1052E000066006600FF0399C00000000000000001E
:1052F00003C000001FF8018003C006601C38018055
:10530000018001803FFC0000000000000000000060
:1053100003C000001FF803C01E78018001803FFC1D
:105320000000180018000FF8000000000000000046
:1053300003C000001FF803C01E7801803FFC00007E
:105340000FF0181818180FF00000000000000000FF
:105350000F1800183FD8061806180F1839D8061865
:10536000061806183FF800180000000000000000B2
:1053700003C000001FF8018003C006601C38000055
:105380003FFC01800180018000000000000000005F
:1053900003C000001FF803C01E7800003FFC01801E
:1053A0001FF00018001800180000000000000000A6
:1053B00003C000001FF803C01E7800003FFC0180FE
:1053C0000180198018000FF80000000000000000A4
:1053D00001801FF803C01E7800003FFC01801FF011
:1053E00000180FF018000FF8000000000000000087
:1053F00003C000001FF803C01E7800003FFC0180BE
:105400000FF0181818180FF000000000000000003E
:105410000F1800183FD806180F1839D800183FF891
:10542000061806F806180C1800000000000000001E
:105430000F1800183FD806180F1839D800183FF871
:105440000618061806180C180000000000000000DE
:1054500003C000001FF8018003C006601C38000074
:10546000000000003FFC0000000000000000000001
:1054700003C000001FF803C01E7800003FFC0000BE
:105480001FF00018001800180000000000000000C5
:1054900003C000001FF803C01E7800003FFC00009E
:1054A0000FF0181818180FF000000000000000009E
:1054B00000180F1800183FD80618061806180F18FD
:1054C0000F18199830D800180000000000000000E4
:1054D0000F1800183FD806180F1839D80018000008
:1054E0001FF0001800180018000000000000000065
:1054F0000F1800183FD8061806180F18199830D83A
:105500000018180018000FF800000000000000004C
:105510000F1800183FD806180F1839D800001FF0D0
:1055200000180FF018000FF8000000000000000045
:105530000F1800183FD806180F1839D800180000A7
:105540001FF8181818181FF80000000000000000CD
:105550000F1800183FD806180F1839D80018000087
:1055600018181FF818180FF00000000000000000C5
:105570000F1800183FD806180F1839D8001800184F
:105580000180018007E01C380000000000000000DE
:105590000F1800183FD806180F1839D80018000047
:1055A0000FF0181818180FF000000000000000009D
:1055B00000183F180198019801983F9E031803189E
:1055C00006180C1838180018000000000000000031
:1055D0003F1801983F9E019807183C1800001FF0E3
:1055E00000180FF018000FF8000000000000000085
:1055F00000D83CD806D806D806D83EF806D806D833
:105600000CD80CD838D800D80000000000000000EA
:1056100000183F180198019801F83F9803180318E3
:1056200006180C18381800180000000000000000D0
:105630003F18019801983FF8031806183C18001805
:105640000018180018000FF800000000000000000B
:105650003F18019801983FF803180E1838180000F9
:105660001FF8181818181FF80000000000000000AC
:1056700000D83CD806D806D806D83FD806D806D8D1
:105680000CD80CD838D800D800000000000000006A
:1056900000183F18019801F801983F98031803F883
:1056A00006180C1838180018000000000000000050
:1056B0003F1801F801983F9803F80E1838180000B9
:1056C000066006600FF0399C00000000000000003A
:1056D00000001FF00018001800181FF80318031826
:1056E000033003003FFC0000000000000000000049
:1056F0001FF000181FF80318033003003FFC0000E0
:105700000000180018000FF8000000000000000062
:1057100000001FF00018001800181FF806D806D85F
:1057200006F006C03FFC0000000000000000000082
:105730001FF0001800181FF8001800303FFC01800F
:105740000180018001800180000000000000000055
:105750003F9800D83FD800D83FF8067806181FF0C9
:1057600000180FF018000FF8000000000000000003
:105770003F9800D83FD800D801983FF8061806187F
:105780000618180018000FF80000000000000000C4
:105790001FF0001800181FF8001800303FFC0630FA
:1057A0000630063006300630000000000000000021
:1057B00000001FF00018001800181FF8001800184B
:1057C000003000003FFC000000000000000000006E
:1057D0001FF0001800181FF8001800303FFC0000F0
:1057E0001800180018000FF800000000000000006A
:1057F0001FF000181FF8001800303FFC00001FF0D9
:1058000000180FF018000FF8000000000000000062
:105810001FF000181FF8001800303FFC00000000C7
:105820001FF8181818181FF80000000000000000EA
:1058300000183F180198019801983F980318031821
:1058400006180C18381800180000000000000000AE
:105850003F18019801983F98031806183C18001843
:105860000018180018000FF80000000000000000E9
:105870003F18019801983F9803180E18381800181F
:105880000180018007E01C380000000000000000DB
:1058900000181FD83018301830183F9E30183018B4
:1058A000301830181FF80018000000000000000039
:1058B0001FD830183FDE301830181FF800180000CD
:1058C0001FF0001800180018000000000000000081
:1058D0001FD8301830183FDE301830181FF8001865
:1058E0000018180018000FF8000000000000000069
:1058F0001FD830183FDE301830181FF800001FF096
:1059000000180FF018000FF8000000000000000061
:105910001FD830183FDE301830181FF8001800006C
:105920001FF8181818181FF80000000000000000E9
:105930001FD830183FDE301830181FF8001800004C
:1059400018181FF818180FF00000000000000000E1
:105950001FD830183FDE301830181FF8001800002C
:105960000FF0181818180FF00000000000000000D9
:1059700000D81FD830D830D830D83EF830D830D8FA
:1059800030D830D81FD800D8000000000000000038
:105990001FD830D83FD830F830D81FD800180000B2
:1059A0001FF00018001800180000000000000000A0
:1059B00000181F983018301830183F7830183018F9
:1059C000301830181FF80018000000000000000018
:1059D0001FD8301830183FF8301830181FF800184A
:1059E0000018180018000FF8000000000000000068
:1059F0001F9830183FF8301830181FD800001FF0DB
:105A000000180FF018000FF8000000000000000060
:105A10001F9830183FF8301830181FD800180000B1
:105A20001FF8181818181FF80000000000000000E8
:105A30001F9830183FF8301830181FD80018000091
:105A40000FF0181818180FF00000000000000000F8
:105A500000D81ED830D830D830D83FD830D830D839
:105A600030D830D81FD800D8000000000000000057
:105A70001ED830D83FD830D830D81FD800180000F2
:105A80001FF00018001800180000000000000000BF
:105A90001ED830D830D83FD830D830D81FD800D80A
:105AA0000018180018000FF80000000000000000A7
:105AB0001ED830D83FD830D830D81FD800001FF0BB
:105AC00000180FF018000FF80000000000000000A0
:105AD0001ED830D83FD830D830D81FD80018000092
