:100000000C9471000C9400000C9400000C940000FF
:100010000C9400000C9400000C9400000C94000060
:100020000C9400000C9400000C9400000C94000050
:100030000C9400000C9400000C9400000C94000040
:100040000C9400000C9400000C9400000C94000030
:100050000C9400000C9400000C9400000C94000020
:100060000C9400000C9400000C9400000C94000010
:100070000C9400000C9400000C9400000C94000000
:100080000C9400000C9400000C9400001027E8036E
:1000900064000A00010000100001100001000000CF
:1000A0004D4547413132382057454C434F4D453A35
:1000B000434E542D55503A204541202020202020E9
:1000C0002000010002009E0008000005A0000800BA
:1000D0000905A80008001205B00002001B05B800C1
:1000E0000000F894EE27ECBBF1E0F5BFE5BFE0932C
:1000F0006C00F8E1F1BDE1BD8DE0A2E0BB27ED931E
:100100008A95E9F780E090E1A0E0B1E0ED930197F6
:10011000E9F7E2ECF0E085919591009761F0A59107
:10012000B59105901590BF01F00105900D920197D2
:10013000E1F7FB01F0CF8BBFEFEFEDBFE0E1EEBFEA
:10014000C0E0D5E00C94DE00E881E03021F4E0E08E
:10015000E093620032C0E13021F4E1E0E09362001C
:100160002CC0E23021F4E3E0E093620026C0E330EB
:1001700021F4E7E0E093620020C0E43021F4EFE0F6
:10018000E09362001AC0E53021F4EFE1E0936200F1
:1001900014C0E63021F4EFE3E09362000EC0E730D4
:1001A00021F4EFE7E093620008C0E83021F4EFEFBC
:1001B000E093620002C0E1E0E2BBF6C0E0E0EBBB2E
:1001C000EABBE0E4E7BBEFE0E8BBE0E0E5BBEFEF74
:1001D000E4BBE0E0E2BBEFEFE1BBE0ECE3B9E0E081
:1001E000E2B9E0936200EFEFE0936100E3E0E093B7
:1001F0006500E1E0E0936400E0E0E0BFE3B70E9467
:100200000002E2BFE0E0E1BFEFB50E940002EEBDF8
:10021000E0E0EDBDECBDE7BDE6BDEBBDEABDE9BD8F
:10022000E8BDE0937900E0937800E5B50E94000214
:10023000E4BDE0E0E3BDA0918B000E944302E0E05A
:10024000E0938A00E0938900E0938800E0938100C6
:10025000E0938000E0938700E0938600E0938500C0
:10026000E0938400E0938300E0938200A0916A0011
:100270000E944302E0E0EABFE9B7A0E00E94430227
:10028000E0ECE8BFE0E0E7BFE0937D00EAB9A091D1
:100290009A000E944302E8E0E8B9E0B5A0E00E94BD
:1002A0004302E6B10E944302EDB10E944302A091D5
:1002B0007400E0E00E944302E1E07E2E77D08AD015
:1002C00087D0E0E8EA935ED0E9E0F5E00E9405021D
:1002D0000E940B02E0ECEA9355D0E0E0F5E00E94CA
:1002E00005020E9411020E94110272D073D0E0E850
:1002F000EA9348D0E2E1F5E00E940502E5ECEA93DA
:1003000041D0EBE1F5E0FA93EA93E2E0EA9366D0BC
:10031000662411E0193020F40E9417021F5FFACF03
:1003200018E0113020F00E9417021150FACFC69A3F
:10033000E8ECF0E00E942002C6986394E9E0E6153C
:1003400008F46624E1ECEA931DD0E62DE05DEA9323
:100350001CD00E940B02DDCFFFCFAF98E0E0EABBDC
:10036000EFEFEBBBAD9AAE9A83E08A95F1F7CF9BA6
:1003700007C0AE980E942402AE9A0E942402F7CFD2
:10038000AE980895EADFAF9802C0E7DFAF9AAD9864
:10039000AE9AEFEFEABBE881EBBB0E942402AE9875
:1003A000E0E0EABBEFEFEBBB21960895E4E6F0E076
:1003B0000E942002EAE30E942B02E1E00E942B024D
:1003C000ECE00E943102E2E00E943102E0E003C072
:1003D000E2E001C0E1E0EA93D5DF08951A9310E06E
:1003E000E9811E1750F4AA81BB81EE27A10FBE1F21
:1003F000EC91EA93CADF1F5FF3CF1881249608952A
:10040000A0E00E944302E0E00895FA93EA93E8E056
:10041000EA930C94EE01E4EFF1E0FA93EA930C9482
:100420003702E8EBFBE0FA93EA930C9437021A9355
:100430000E94A400E4E6F0E0FA93EA930C943702F9
:10044000FA93EA930C94370283E08A95F1F783E0FC
:100450008A95F1F70895EA930E94C201ECE3F0E077
:10046000EFCFEA930E94C201E4E1F0E0E9CFE99125
:10047000F991309639F088EE93E00197F1F7A8955D
:100480003197C9F70895EA17E1E009F0EE270895DA
:00000001FF
