:100000000C944A000C9401070C9469000C9469004C
:100010000C9469000C9465040C9469000C946900BC
:100020000C9469000C9465070C9469000C94D2053B
:100030000C9469000C9469000C9469000C94F70509
:100040000C9492030C9469000C9469000C94690060
:100050000C9469000C9469000C9469000C9469007C
:100060000C9469000C941E040C9469000C946900B3
:100070000C9469000C9469000C9469000C9469005C
:100080000C947F050C9469000C9469000C94690031
:100090000C94690011241FBECFEFD0E1DEBFCDBFAD
:1000A00012E0A0E0B1E0E8E7FAE100E00BBF02C037
:1000B00007900D92A43CB107D9F712E0A4ECB2E08E
:1000C00001C01D92AF3EB107E1F70E94E0020C941F
:1000D0003A0D0C940000DF93CF9300D000D0CDB741
:1000E000DEB72D9A19821A821B821C8289819A811D
:1000F000AB81BC8184369105A105B105E0F489810D
:100100009A81AB81BC8189839A83AB83BC838981CB
:100110009A81AB81BC810196A11DB11D89839A830F
:10012000AB83BC8389819A81AB81BC818436910584
:10013000A105B10520F30F900F900F900F90CF9174
:10014000DF910895DF93CF9300D000D0CDB7DEB715
:100150009B01AC0119821A821B821C8289819A81BF
:10016000AB81BC8182179307A407B507E0F48981AE
:100170009A81AB81BC8189839A83AB83BC8389815B
:100180009A81AB81BC810196A11DB11D89839A839F
:10019000AB83BC8389819A81AB81BC818217930731
:1001A000A407B50720F30F900F900F900F90CF91F9
:1001B000DF910895AF92BF92CF92DF92EF92FF92BC
:1001C0000F931F93CF93DF938091ED02882359F40F
:1001D000DF91CF911F910F91FF90EF90DF90CF9023
:1001E000BF90AF9008951092ED02C091E902D091B6
:1001F000EA028091EB029091EC02C81BD90B7E01C0
:100200000027F7FC0095102F8091C8029091C90239
:10021000A091CA02B091CB028E0D9F1DA01FB11FED
:100220008093C8029093C902A093CA02B093CB02F4
:100230000E942C07AA2797FDA095BA2FBC01CD01DB
:100240000E94600A5B016C01C801B7010E94600A4C
:100250002091840130918501409186015091870160
:100260000E9466099B01AC01C601B5010E943909D3
:100270007B018C016091C8027091C9028091CA0211
:100280009091CB020E94600A2091880130918901EF
:1002900040918A0150918B010E9466099B01AC013B
:1002A000C801B7010E9439097B018C018091CC0201
:1002B0009091CD02BE01681B790B882777FD809550
:1002C000982F0E94600A2091C4023091C50240918B
:1002D000C6025091C7020E9466099B01AC01C80189
:1002E000B7010E9439090E94BE0ACB0124E06030A8
:1002F00072074CF497FD0AC00E942F07D093CD02DD
:10030000C093CC0265CF8FEF93E0F4CF80E090E014
:10031000F3CF6091E9027091EA0280E090E02FEF64
:1003200033E040E050E00E94AE0C20E137E240E0D4
:1003300050E00E94E10CDA01C9010E942F070895E4
:10034000DF93CF9300D000D0CDB7DEB7CE010196BA
:100350000E94BD05882309F47DC069817A818B8163
:100360009C8128E532E040E050E00E94AE0C2EE097
:1003700030E040E050E00E94E10C29833A834B8357
:100380005C83C9012093EB029093EC0281E080939F
:10039000ED0280E091E00E94640589819A810E94CB
:1003A000FF0469817A818B819C812AE030E040E002
:1003B00050E00E94E10C862F60E040E00E9485033F
:1003C00069817A818B819C812AE030E040E050E0B5
:1003D0000E94E10CCA01B9012AE030E040E050E09F
:1003E0000E94E10C862F61E040E00E948503698154
:1003F0007A818B819C8124E630E040E050E00E94CD
:10040000E10CCA01B9012AE030E040E050E00E946E
:10041000E10C862F62E040E00E94850369817A81C9
:100420008B819C8128EE33E040E050E00E94E10C9B
:10043000CA01B9012AE030E040E050E00E94E10C3E
:10044000862F63E040E00E9485038091CE028F5F9B
:100450008093CE020F900F900F900F90CF91DF916D
:100460000895DF93CF930F92CDB7DEB7CE010196FB
:100470000E947305882349F08981863499F0873476
:1004800040F08335E1F08435A1F00F90CF91DF91FA
:1004900008958234D1F781E00E94F9060F90CF9140
:1004A000DF91089580E00E94F9060F90CF91DF91CF
:1004B00008950E9429070F90CF91DF9108950E941F
:1004C00032070F90CF91DF910895DF93CF9300D043
:1004D000CDB7DEB7CE0101960E949F07882301F1B8
:1004E00069817A8180E090E020E137E240E050E0ED
:1004F0000E94AE0C2FEF33E040E050E00E94E10C90
:100500003093EA022093E902F89484E091E00E949B
:1005100064058091E9029091EA020E94FF047894B8
:100520000F900F90CF91DF9108950E948E04882341
:1005300041F0833091F0843028F08430D1F0853060
:1005400089F008958130E9F08230D9F70E943207AE
:1005500088E091E00E946405089583E391E00E94A1
:10056000640508950E94290781E191E00E946405D5
:10057000089580E00E94F9068CE191E00E946405F4
:10058000089581E00E94F90687E291E00E946405E7
:1005900008950E941A030E9450030E94C2040E9400
:1005A000C6030E945B040E9435070E9492050E94C8
:1005B0004B071092EA021092E9021092ED020895A0
:1005C0000E94C90280E00E94210381E00E942C0366
:1005D00080E00E94380381E00E94450380E060E0F3
:1005E00040E00E94850381E061E040E00E948503D5
:1005F00082E062E040E00E94850383E063E040E047
:100600000E94850380E491E00E94640582E691E007
:100610000E94640580E491E00E94640578940E9441
:1006200095020E94A0010E9465020E9431020E9470
:10063000DA00F5CF88B18F7088B987B1806F87B93C
:100640000895982F811191E091709295907F88B1D3
:100650008F7E892B88B90895982F811191E0917030
:100660009295990F907E88B18F7D892B88B90895D6
:10067000982F811191E091709295990F990F907C2C
:1006800088B18F7B892B88B90895982F811191E0CB
:1006900097959927979588B18F77892B88B9089571
:1006A0008FEF82B981B988B18F6088B987B18F60C7
:1006B00087B984B5886084BD84B58F7B84BD84B5DB
:1006C000846084BD84B58D7F84BD84B5816084BD24
:1006D0008DE487BDEEE6F0E080818260808308953E
:1006E000E82FF0E0E457FE4FE0814111EF77E2B9E7
:1006F00028B181E090E002C0880F991F6A95E2F767
:1007000080952F60822388B90895E82FF0E0E457A0
:10071000FE4F808141118F77E62FF0E0E956FE4FC2
:10072000808308951F920F920FB60F920BB60F920F
:1007300011242F933F934F938F939F93EF93FF93A6
:100740002091CF022F5F23702093CF0230E0F90178
:10075000E956FE4F808182B948B181E090E002C045
:10076000880F991F2A95E2F780954F60842388B9F6
:10077000FF91EF919F918F914F913F912F910F900A
:100780000BBE0F900FBE0F901F901895ECE7F0E096
:1007900080818F77808380818064808380818F7D5A
:1007A0008083EAE7F0E080818068808380818860D0
:1007B000808380818460808380818D7F808380813D
:1007C0008E7F80830895982F80917A0086FDFCCFDC
:1007D00080917C00807E892B80937C0080917A00C0
:1007E000806480937A000895DB01282F30E08091A7
:1007F000DA0290E0022E02C0959587950A94E2F7FE
:1008000080FF1AC0F894F901EE0FFF1FE053FD4F6F
:10081000808191818D939C9381E090E002C0880F4C
:10082000991F2A95E2F780952091DA0228232093D8
:10083000DA02789481E0089580E008951F920F9283
:100840000FB60F920BB60F9211242F933F934F9335
:100850005F938F939F93EF93FF9350917800409114
:10086000790020917C002F7130E0F901EE0FFF1F1D
:10087000E053FD4F942F80E0850F911D918380837D
:1008800081E090E002C0880F991F2A95E2F720913D
:10089000DA02282B2093DA02FF91EF919F918F913A
:1008A0005F914F913F912F910F900BBE0F900FBE14
:1008B0000F901F901895EAE6F0E0808182608083B7
:1008C00080818E7F8083EC9A08951F920F920FB6DD
:1008D0000F920BB60F9211242F933F934F935F9378
:1008E0006F937F938F939F93AF93BF93EF93FF93F8
:1008F00080E00E94E303FF91EF91BF91AF919F9140
:100900008F917F916F915F914F913F912F910F90B8
:100910000BBE0F900FBE0F901F901895DF93CF93D3
:1009200000D0CDB7DEB780E0BE016F5F7F4F0E9481
:10093000F4038823C1F069817A81ECE9F1E040E0B9
:1009400050E020813181C901C197681779072CF0E7
:100950002E5C3F4F6217730760F04F5F5F4F339617
:100960004530510571F780E00F900F90CF91DF91E6
:100970000895FA01EE0FFF1FE40FF51FE556FE4F35
:100980008081F2CF88E98093C90086E08093CA0015
:100990001092CD0089E18093CC000895982F80912A
:1009A000C80085FFFCCF9093CE000895982F8091CA
:1009B000C80085FFFCCF80E38093CE008091C80003
:1009C00085FFFCCF88E78093CE00E92FE295EF709A
:1009D000F0E0E655FE4FE0818091C80085FFFCCF36
:1009E000E093CE009F70E92FF0E0E655FE4FE081E6
:1009F0008091C80085FFFCCFE093CE0008959C0154
:100A000060E177E20E94CD0CCB016AE070E00E94C9
:100A1000CD0CE82FF0E0E655FE4FE0818091C80054
:100A200085FFFCCFE093CE00C90168EE73E00E9421
:100A3000CD0CCB016AE070E00E94CD0CE82FF0E015
:100A4000E655FE4FE0818091C80085FFFCCFE09322
:100A5000CE00C90164E670E00E94CD0CCB016AE0D3
:100A600070E00E94CD0CE82FF0E0E655FE4FE081EB
:100A70008091C80085FFFCCFE093CE00C9016AE0F9
:100A800070E00E94CD0CCB016AE070E00E94CD0CBA
:100A9000E82FF0E0E655FE4FE0818091C80085FF29
:100AA000FCCFE093CE00C9016AE070E00E94CD0C5B
:100AB000E82FF0E0E655FE4FE0818091C80085FF09
:100AC000FCCFE093CE000895FC019081992351F072
:100AD0008091C80085FFFCCF9093CE003196908125
:100AE0009923B1F70895FC018091DB02882331F04E
:100AF0001092DB028091EE02808381E008951F92C4
:100B00000F920FB60F9211248F938091CE00809395
:100B1000EE0281E08093DB028F910F900FBE0F9069
:100B20001F901895A1E8B0E08C9180648C93EFE65B
:100B3000F0E08081806280838081816080838C91FD
:100B40008F7E8C938C9188608C93E0E8F0E08081BC
:100B5000826080838081816080838C918B7F8C9385
:100B60008C9182608C938C918E7F8C9310928500F7
:100B70001092840086B386BB0895FC018091E60242
:100B8000882379F01092E6028091E2029091E302CC
:100B9000A091E402B091E50280839183A283B383A4
:100BA00081E008951F920F920FB60F9211248F9338
:100BB0009F93AF93BF938091DE029091DF02A0914B
:100BC000E002B091E1020196A11DB11D8093DE0209
:100BD0009093DF02A093E002B093E102BF91AF9146
:100BE0009F918F910F900FBE0F901F9018951F929D
:100BF0000F920FB60F9211248F939F93AF93BF93D1
:100C00008091DC029091DD0201969093DD02809349
:100C1000DC02833C9105F9F48091DE029091DF02C1
:100C2000A091E002B091E1028093E2029093E3028E
:100C3000A093E402B093E5021092DE021092DF026C
:100C40001092E0021092E10281E08093E60210929D
:100C5000DD021092DC02BF91AF919F918F910F90B6
:100C60000FBE0F901F901895282F80FF0CC02D9855
:100C7000259A809180008F778093800080918000FA
:100C80008F7B8093800021FF0CC02E98269A809144
:100C900080008F7D80938000809180008F7E809384
:100CA000800022FF0CC02F98279A80918000877FB8
:100CB00080938000809180008B7F80938000809162
:100CC00081008F7E80938100809181008860809375
:100CD00081008091800082608093800080918000FC
:100CE000816080938000809181008B7F8093810060
:100CF00080918100826080938100809181008E7F4D
:100D000080938100109285001092840086B386BB88
:100D10000895E0E8F0E080818068808380818F7BA7
:100D200080830895E0E8F0E08081806280838081A4
:100D30008F7E80830895E0E8F0E080818860808382
:100D400080818B7F80830895E0E8F0E080818F7759
:100D5000808380818F7B80830895E0E8F0E080814C
:100D60008F7D808380818F7E80830895E0E8F0E02E
:100D700080818F7D808380818F7E80830895909392
:100D800089008093880090938B0080938A009093D1
:100D90008D0080938C000895909389008093880043
:100DA000089590938B0080938A00089590938D000E
:100DB00080938C0008959091880080918900382F4D
:100DC00020E0290F311DC901089590918A0080917A
:100DD0008B00382F20E0290F311DC9010895909113
:100DE0008C0080918D00382F20E0290F311DC90122
:100DF00008958170880F880F95B19B7F982B95B9C6
:100E000008951F920F920FB60F920BB60F921124F6
:100E10002F933F934F935F936F937F938F939F9302
:100E2000AF93BF93EF93FF930E94A406FF91EF91BE
:100E3000BF91AF919F918F917F916F915F914F91F2
:100E40003F912F910F900BBE0F900FBE0F901F90F0
:100E500018950E94A40608950E94DB0608950E943A
:100E6000BF0608950E94890608952A98229A2D980F
:100E7000259AE9E6F0E080818260808380818E7F20
:100E8000808381E00E94340680E090E00E94BF06EB
:100E90000E94A4060895E0EBF0E0808188608083E2
:100EA00080818F7B808380818460808380818D7F3F
:100EB000808380818E7F808389EF8093B300E0E719
:100EC000F0E080818260808308951F920F920FB6B8
:100ED0000F920BB60F9211242F933F934F935F9372
:100EE0006F937F938F939F93AF93BF93EF93FF93F2
:100EF0008091E7029091E80201969093E802809336
:100F0000E7028436910599F0FF91EF91BF91AF917F
:100F10009F918F917F916F915F914F913F912F9111
:100F20000F900BBE0F900FBE0F901F90189581E091
:100F30000E94E3031092E8021092E702E5CF0F93BC
:100F40001F93DF93CF9300D0CDB7DEB78C0181E044
:100F5000BE016F5F7F4F0E94F403882331F08981C7
:100F60009A81F8019183808381E00F900F90CF9157
:100F7000DF911F910F910895A0E0B0E0E2ECF7E05F
:100F80000C94030DDC012B01FA019C91923008F4C2
:100F900039C1EB018881823008F433C1943069F49F
:100FA000843009F02FC111969C911197898198176F
:100FB00009F428C1ABEBB1E025C1843009F421C1AB
:100FC0008230A9F4923009F01DC19A01AD0188E088
:100FD000EA010990AE01E90109929E018150C1F731
:100FE000E201898111969C918923818308C1923005
:100FF00009F407C112962D903C901397EB018A815A
:101000009B811496AD90BD90CD90DC901797EC80AD
:10101000FD800E811F819101281B390BB90137FF1B
:1010200004C066277727621B730B603271050CF0D2
:1010300061C0121613066CF537014801062E04C074
:1010400096948794779467940A94D2F721E030E0DD
:1010500040E050E004C0220F331F441F551F6A9523
:10106000D2F721503040404050402E213F214023B4
:101070005123211531054105510521F021E030E0D2
:1010800040E050E079018A01E628F728082919296B
:101090003CC0232BD1F1260E371E35014601062E0A
:1010A00004C096948794779467940A94D2F721E0C9
:1010B00030E040E050E004C0220F331F441F551FB2
:1010C0006A95D2F721503040404050402A213B21C0
:1010D0004C215D21211531054105510521F021E00B
:1010E00030E040E050E059016A01A628B728C8283E
:1010F000D9280BC0821593052CF01C01AA24BB240F
:10110000650103C0EE24FF24870111969C91D20152
:1011100011968C91981709F445C0992339F0A801CC
:1011200097012A193B094C095D0906C0A6019501E2
:101130002E193F09400B510B57FD08C01182338215
:10114000228224833583468357831DC081E08183B7
:101150003382228288279927DC01821B930BA40B00
:10116000B50B84839583A683B7830DC0220F331FED
:10117000441F551F2483358346835783828193817F
:101180000197938382832481358146815781DA01D7
:10119000C9010197A109B1098F5F9F4FAF4FBF43AD
:1011A00028F30BC0918333822282EA0CFB1C0C1DB6
:1011B0001D1DE482F5820683178383E080832481EA
:1011C00035814681578157FF1AC0C901AA2797FD6B
:1011D000A095BA2F81709070A070B0705695479509
:1011E00037952795822B932BA42BB52B848395833E
:1011F000A683B78382819381019693838283DF01E3
:1012000001C0D201CD01CDB7DEB7E2E10C941F0DD4
:10121000A0E2B0E0EEE0F9E00C940F0D69837A8370
:101220008B839C832D833E834F835887E9E0EE2E8A
:10123000F12CEC0EFD1ECE010196B7010E94360C7A
:101240008E010F5E1F4FCE010596B8010E94360C2D
:101250008A8991E089278A8BC701B801AE01475E70
:101260005F4F0E94BC070E94610BA096E6E00C94C1
:101270002B0DA0E2B0E0EFE3F9E00C940F0D6983D1
:101280007A838B839C832D833E834F835887F9E039
:10129000EF2EF12CEC0EFD1ECE010196B7010E943F
:1012A000360C8E010F5E1F4FCE010596B8010E94CD
:1012B000360CC701B801AE01475E5F4F0E94BC0704
:1012C0000E94610BA096E6E00C942B0DA0E2B0E02A
:1012D000ECE6F9E00C94030D69837A838B839C839D
:1012E0002D833E834F835887CE010196BE01675FF1
:1012F0007F4F0E94360CCE010596BE016F5E7F4F78
:101300000E94360C9985923088F089898230C8F025
:10131000943019F4823051F404C0843029F49230AE
:1013200081F48BEB91E0C6C0923049F420E09A85BD
:101330008A89981321E02A87CE010996BBC08230A2
:1013400049F420E09A858A89981321E02A8BCE01FE
:101350004196B0C02D843E844F8458886D887E8825
:101360008F88988CEE24FF248701AA24BB24650172
:1013700040E050E060E070E0E0E0F0E0C10181704A
:101380009070892BE9F0E60CF71C081D191D9A01D5
:10139000AB012A0D3B1D4C1D5D1D80E090E0A0E0DF
:1013A000B0E0E614F7040805190520F481E090E0A8
:1013B000A0E0B0E0BA01A901480F591F6A1F7B1FC6
:1013C000AA0CBB1CCC1CDD1C97FE08C081E090E081
:1013D000A0E0B0E0A82AB92ACA2ADB2A3196E03276
:1013E000F10549F0660C771C881C991C56944794AB
:1013F00037942794C3CFFA85EA892B893C898B855A
:101400009C85280F391F2E5F3F4F17C0CA0181707E
:101410009070892B61F016950795F794E79480E01A
:1014200090E0A0E0B0E8E82AF92A0A2B1B2B769579
:101430006795579547952F5F3F4F77FDE7CF0CC0D6
:10144000440F551F661F771F17FD4160EE0CFF1CF0
:10145000001F111F21503040403090E0590790E0AC
:10146000690790E4790760F32B8F3C8FDB01CA0199
:101470008F779070A070B07080349105A105B10590
:1014800061F447FD0AC0E114F1040105110529F0DA
:10149000405C5F4F6F4F7F4F40781A8EFE1711F000
:1014A00081E08A8F4D8F5E8F6F8F78A383E0898F65
:1014B000CE0149960E94610BA096E2E10C941F0DAB
:1014C000A8E0B0E0E6E6FAE00C940C0D9B01AC015C
:1014D00083E08983DA01C9018827B7FD83959927BD
:1014E000AA27BB27B82E211531054105510519F44E
:1014F00082E089833AC08823A9F0203080E0380751
:1015000080E0480780E8580729F460E070E080E058
:101510009FEC30C0EE24FF248701E21AF30A040B8B
:10152000150B02C079018A018EE1C82ED12CDC8214
:10153000CB82ED82FE820F831887C801B7010E941B
:10154000120B01971816190684F4082E04C0EE0C2D
:10155000FF1C001F111F0A94D2F7ED82FE820F8339
:101560001887C81AD90ADC82CB82BA82CE010196CA
:101570000E94610B2896E9E00C94280DACE0B0E0E5
:10158000E4ECFAE00C94130D69837A838B839C83DB
:10159000CE010196BE016B5F7F4F0E94360C8D819C
:1015A000823061F1823050F1843021F48E818823C1
:1015B00051F12EC02F81388537FD20C06E812F312B
:1015C00031051CF06623F9F023C08EE190E0821B08
:1015D000930B29853A854B855C8504C056954795C4
:1015E000379527958A95D2F76623B1F050954095A7
:1015F000309521953F4F4F4F5F4F0EC020E030E0B8
:1016000040E050E009C02FEF3FEF4FEF5FE704C02D
:1016100020E030E040E050E8B901CA012C96E2E059
:101620000C942F0DEF92FF920F931F937B018C016F
:1016300080E0E81680E0F80681E0080780E01807FF
:1016400088F48FEFE816F1040105110531F028F058
:1016500088E090E0A0E0B0E017C080E090E0A0E07B
:10166000B0E012C080E0E81680E0F80680E00807ED
:1016700081E0180728F088E190E0A0E0B0E004C025
:1016800080E190E0A0E0B0E020E230E040E050E017
:10169000281B390B4A0B5B0B04C016950795F79472
:1016A000E7948A95D2F7F701ED53FE4F8081281B0E
:1016B000310941095109C9011F910F91FF90EF9024
:1016C0000895DF92EF92FF920F931F93FC01E48045
:1016D000F58006811781D1808081823048F480E0D6
:1016E00090E0A0E1B0E0E82AF92A0A2B1B2BA5C064
:1016F000843009F49FC0823021F4EE24FF24870156
:1017000005C0E114F1040105110519F4E0E0F0E071
:1017100096C0628173819FEF623879070CF05BC0DD
:1017200022E83FEF261B370B2A3131052CF020E051
:1017300030E040E050E02AC0B801A701022E04C00A
:1017400076956795579547950A94D2F781E090E092
:10175000A0E0B0E004C0880F991FAA1FBB1F2A9504
:10176000D2F70197A109B1098E219F21A023B123AE
:101770000097A105B10521F081E090E0A0E0B0E084
:101780009A01AB01282B392B4A2B5B2BDA01C901BB
:101790008F779070A070B07080349105A105B1056D
:1017A00039F427FF09C0205C3F4F4F4F5F4F04C003
:1017B000215C3F4F4F4F5F4FE0E0F0E02030A0E072
:1017C0003A07A0E04A07A0E45A0710F0E1E0F0E091
:1017D00079018A0127C06038710564F5FB01E15881
:1017E000FF4FD801C7018F779070A070B070803420
:1017F0009105A105B10539F4E7FE0DC080E490E044
:10180000A0E0B0E004C08FE390E0A0E0B0E0E80E1C
:10181000F91E0A1F1B1F17FF05C016950795F794A1
:10182000E794319687E016950795F794E7948A95A3
:10183000D1F705C0EE24FF248701EFEFF0E06E2F13
:10184000679566276795902F9F77D794DD24D79467
:101850008E2F8695492F462B582F5D29B701CA0137
:101860001F910F91FF90EF90DF900895FC01DB0135
:10187000408151812281622F6F7770E0221F2227E1
:10188000221F9381892F880F822B282F30E0991FE8
:101890009927991F11969C93119721153105A9F548
:1018A000411551056105710511F482E037C082E8E8
:1018B0009FEF13969C938E9312979A01AB0167E06A
:1018C000220F331F441F551F6A95D1F783E08C9375
:1018D0000DC0220F331F441F551F12968D919C91EE
:1018E0001397019713969C938E931297203080E064
:1018F000380780E0480780E4580758F314962D9382
:101900003D934D935C93179708952F3F310579F4DC
:10191000411551056105710519F484E08C93089512
:1019200064FF03C081E08C9312C01C9210C02F573B
:10193000304013963C932E93129783E08C9387E06C
:10194000440F551F661F771F8A95D1F77064149650
:101950004D935D936D937C9317970895629FD0018B
:10196000739FF001829FE00DF11D649FE00DF11D5A
:10197000929FF00D839FF00D749FF00D659FF00D09
:101980009927729FB00DE11DF91F639FB00DE11DF6
:10199000F91FBD01CF0111240895AA1BBB1B51E102
:1019A00007C0AA1FBB1FA617B70710F0A61BB70BCF
:1019B000881F991F5A95A9F780959095BC01CD0174
:1019C0000895A1E21A2EAA1BBB1BFD010DC0AA1F80
:1019D000BB1FEE1FFF1FA217B307E407F50720F098
:1019E000A21BB30BE40BF50B661F771F881F991F13
:1019F0001A9469F760957095809590959B01AC015C
:101A0000BD01CF0108952F923F924F925F926F9246
:101A10007F928F929F92AF92BF92CF92DF92EF927E
:101A2000FF920F931F93CF93DF93CDB7DEB7CA1BFF
:101A3000DB0B0FB6F894DEBF0FBECDBF09942A882A
:101A4000398848885F846E847D848C849B84AA84D2
:101A5000B984C884DF80EE80FD800C811B81AA815F
:101A6000B981CE0FD11D0FB6F894DEBF0FBECDBF2A
:081A7000ED010895F894FFCF89
:101A78003C533E003C443E000D0A4B65792D5570A1
:101A8800000D0A4B65792D446F776E000D0A4B6582
:101A9800792D4C656674000D0A4B65792D5269677E
:101AA8006874000D0A4B65792D43656E7465720084
:101AB8000D0A3D3D3D3D3D3D3D3D3D3D3D3D3D3DB1
:101AC8003D3D3D3D3D3D3D3D3D3D3D3D3D3D3D3D3E
:101AD8003D000D0A3D204443204D6F746F7220C1B4
:101AE800A6BEEE20C7C1B7CEB1D7B7A52056312EB6
:101AF80030203D000AD7233C6F12833AC0F9A4B0C6
:101B0800999282F88090FFFFFFFFFF01000002C654
:101B180000039901046302052D0330313233343553
:101B2800363738394142434445460000000000003A
:101B38000000000001020203030303040404040478
:101B48000404040505050505050505050505050540
:101B58000505050606060606060606060606060620
:101B6800060606060606060606060606060606060D
:101B780006060607070707070707070707070707F0
:101B880007070707070707070707070707070707DD
:101B980007070707070707070707070707070707CD
:101BA80007070707070707070707070707070707BD
:101BB80007070708080808080808080808080808A0
:101BC800080808080808080808080808080808088D
:101BD800080808080808080808080808080808087D
:101BE800080808080808080808080808080808086D
:101BF800080808080808080808080808080808085D
:101C0800080808080808080808080808080808084C
:101C1800080808080808080808080808080808083C
:101C2800080808080808080808080808080808082C
:041C38000808080090
:00000001FF
