:020000000C945E
:1000020071000C9400000C9400000C9400000C94FD
:1000120000000C9400000C9400000C9400000C945E
:1000220000000C9400000C9400000C9400000C944E
:1000320000000C9400000C9400000C9400000C943E
:1000420000000C9400000C9400000C9400000C942E
:1000520000000C9400000C9400000C9400000C941E
:1000620000000C9400000C9400000C9400000C940E
:1000720000000C9400000C9400000C9400000C94FE
:1000820000000C9400000C9400001027E8036400A8
:100092000A000100001000011000010000004D459F
:1000A20047413132382057454C434F4D453A434E34
:1000B200542D55503A204541202020202020200058
:1000C200010002009E0008000005A00008000905CA
:1000D200A80008001205B00002001B05B8000000CD
:1000E200F894EE27ECBBF1E0F5BFE5BFE0936C00BE
:1000F200F8E1F1BDE1BD8DE0A2E0BB27ED938A9569
:10010200E9F780E090E1A0E0B1E0ED930197E9F733
:10011200E2ECF0E085919591009761F0A591B5919F
:1001220005901590BF01F00105900D920197E1F73E
:10013200FB01F0CF8BBFEFEFEDBFE0E1EEBFC0E020
:10014200D5E00C94DF00AA93E881E03021F4E0E0EE
:10015200E093620032C0E13021F4E1E0E09362001A
:100162002CC0E23021F4E3E0E093620026C0E330E9
:1001720021F4E7E0E093620020C0E43021F4EFE0F4
:10018200E09362001AC0E53021F4EFE1E0936200EF
:1001920014C0E63021F4EFE3E09362000EC0E730D2
:1001A20021F4EFE7E093620008C0E83021F4EFEFBA
:1001B200E093620002C0E1E0E2BBDBC0E0E0EBBB47
:1001C200EABBE0E4E7BBEFE0E8BBE0E0E5BBEFEF72
:1001D200E4BBE0E0E2BBEFEFE1BBE0ECE3B9E0E07F
:1001E200E2B9E0936200EFEFE0936100E3E0E093B5
:1001F2006500E1E0E0936400E0E0E0BFE3B7A0E087
:1002020000D1E0E0E2BFE1BFEFB5FBD0E0E0EEBD40
:10021200EDBDECBDE7BDE6BDEBBDEABDE9BDE8BDA8
:10022200E0937900E0937800E5B5EBD0E0E0E4BD3F
:10023200E3BDA0918B00E5D0E0E0E0938A00E0937B
:100242008900E0938800E0938100E0938000E093CE
:100252008700E0938600E0938500E0938400E093BA
:100262008300E0938200A0916A00CBD0E0E0EABF75
:10027200E9B7A0E0C6D0E0ECE8BFE0E0E7BFE0937A
:100282007D00EAB9A0919A00BCD0E8E0E8B9E0B5F7
:10029200A0E0B7D0E6B1B5D0EDB1B3D0A091740073
:1002A200E0E0AFD0E1E07E2E66D074D071D0A0E85D
:1002B20050D0E9E0F5E083D0A4EFB1E0A7D0A0EC04
:1002C20048D0E0E0F5E07BD0A8EBBBE09FD0A8EB04
:1002D200BBE09CD05DD05ED0A0E83BD0E2E1F5E08F
:1002E2006ED0A5EC36D0EBE1F5E0FA93EA93A2E00A
:1002F20054D0662411E0193018F465D01F5FFBCF8B
:1003020018E0113018F05FD01150FBCFC69AA8EC5C
:10031200B0E07CD0C6986394E9E0E61508F4662460
:10032200A1EC17D0A62DA05D18D0A4EFB1E06ED03D
:10033200E1CFFFCFAF984CD0AD9A4FD0CF9B07C043
:10034200AE9850D04AD083E08A95F1F7F7CFAE98B5
:100352000895AA93EFDFAF9803C0AA93EBDFAF9A99
:10036200AD98AE9AEFEFEABBE881EBBB3BD0AE981B
:100372002FD021960895A4E6B0E048D0AAE339D060
:10038200A1E037D0ACE039D0A2E037D0A0E003C082
:10039200A2E001C0A1E0DDDF0895AA931A9310E064
:1003A200E9811E1748F4AA81BB81EE27A10FBE1F67
:1003B200AC91D3DF1F5FF4CF188124960895FA938E
:1003C200EA93A8E0EACFA12FBEDEA4E6B0E01EC009
:1003D200E0E0EABBEFEFEBBB0895AE9A83E08A95CB
:1003E200F1F7089583E08A95F1F783E08A95F1F7B2
:1003F2000895AFDFACE3B0E009C0ABDFA4E1B0E049
:1004020005C0EA17E1E009F0EE270895109639F0E9
:10041200A89588EE93E00197F1F71197C9F708952F
:00000001FF
