:080000000C944F000C94000069
:100008000C9400000C9400000C9400000C94000068
:100018000C9400000C9400000C9400000C94000058
:100028000C9400000C9400000C9400000C94000048
:100038000C9400000C9400000C9400000C94000038
:100048000C9400000C9400000C9400000C94000028
:100058000C9400000C9400000C9400000C94000018
:100068000C9400000C9400000C9400000C94000008
:100078000C9400000C9400000C9400000C940000F8
:100088000C9400001027E80364000A000100001027
:10009800000110000100F894EE27ECBBF1E0F5BF79
:1000A800E5BFE0936C00F8E1F1BDE1BD8DE0A2E0B1
:1000B800BB27ED938A95E9F780E090E1A0E0B1E0F5
:1000C800ED930197E9F78BBFEFEFEDBFE0E1EEBFEE
:1000D800C0E0D5E00C947000E0E0EBBBEABBE8BB05
:1000E800E7BBE5BBE4BBE2BBE1BBE3B9E2B9EFEFD9
:1000F800E0936200E0936100E0E0E0936500E09344
:100108006400E0BFE3BFE2BFE1BFEFBDEEBDEDBD00
:10011800ECBDE7BDE6BDEBBDEABDE9BDE8BDE093DA
:100128007900E0937800E5BDE4BDE3BDE0938B0082
:10013800E0938A00E0938900E0938800E0938100CF
:10014800E0938000E0938700E0938600E0938500C9
:10015800E0938400E0938300E0938200E0936A00D8
:10016800EABFE9BFE7BFE0937D00E0E8E8B9E0E077
:10017800E0BD2197E0E0E0936200E1E0E883A88138
:10018800A93008F048C0E881F0E0E130A0E0FA07C3
:1001980021F4E1E0E093620037C0E230A0E0FA0722
:1001A80021F4E2E0E09362002FC0E330A0E0FA0718
:1001B80021F4E4E0E093620027C0E430A0E0FA070D
:1001C80021F4E8E0E09362001FC0E530A0E0FA0700
:1001D80021F4E0E1E093620017C0E630A0E0FA07FE
:1001E80021F4E0E2E09362000FC0E730A0E0FA07F4
:1001F80021F4E0E4E093620007C0E830A0E0FA07E9
:1002080019F4E0E8E0936200A8ECB0E007D0E881D8
:10021800EF5FE883B4CF2196ACCFFFCF109639F0CB
:10022800A89588EE93E00197F1F71197C9F708951B
:00000001FF
