:0C0000000C944F000C9400000C940000C5
:10000C000C9400000C9400000C9400000C94000064
:10001C000C9400000C9400000C9400000C94000054
:10002C000C9400000C9400000C9400000C94000044
:10003C000C9400000C9400000C9400000C94000034
:10004C000C9400000C9400000C9400000C94000024
:10005C000C9400000C9400000C9400000C94000014
:10006C000C9400000C9400000C9400000C94000004
:10007C000C9400000C9400000C9400000C940000F4
:10008C001027E80364000A000100001000011000B2
:10009C000100F894EE27ECBBF1E0F5BFE5BFE0936F
:1000AC006C00F8E1F1BDE1BD8DE0A2E0BB27ED9362
:1000BC008A95E9F780E090E1A0E0B1E0ED9301973B
:1000CC00E9F78BBFEFEFEDBFE0E1EEBFC0E0D5E0AD
:1000DC000C947000E0E0EBBBEABBE8BBE7BBE5BB14
:1000EC00E4BBE2BBE1BBE3B9E2B9EFEFE093620042
:1000FC00E0936100E0E0E0936500E0936400E0BF12
:10010C00E3BFE2BFE1BFEFBDEEBDEDBDECBDE7BDB2
:10011C00E6BDEBBDEABDE9BDE8BDE0937900E09337
:10012C007800E5BDE4BDE3BDE0938B00E0938A006D
:10013C00E0938900E0938800E0938100E0938000D5
:10014C00E0938700E0938600E0938500E0938400C1
:10015C00E0938300E0938200E0936A00EABFE9BF7A
:10016C00E7BFE0937D00E0E8E8B9E0E0E0BDEFEF49
:10017C00E0936100E0936200EFE00E94CA00E8E8BF
:10018C000E94CA00F9CFFFCFE0936200E8EEF3E0E3
:10019C00FA93EA930C94D200E991F991309639F0E4
:1001AC0088EE93E00197F1F7A8953197C9F7089578
:00000001FF
