:060000000C944F000C946B
:1000060000000C9400000C9400000C9400000C946A
:1000160000000C9400000C9400000C9400000C945A
:1000260000000C9400000C9400000C9400000C944A
:1000360000000C9400000C9400000C9400000C943A
:1000460000000C9400000C9400000C9400000C942A
:1000560000000C9400000C9400000C9400000C941A
:1000660000000C9400000C9400000C9400000C940A
:1000760000000C9400000C9400000C9400000C94FA
:1000860000000C9400001027E80364000A00010039
:100096000010000110000100F894EE27ECBBF1E01F
:1000A600F5BFE5BFE0936C00F8E1F1BDE1BD8DE081
:1000B600A2E0BB27ED938A95E9F780E090E1A0E006
:1000C600B1E0ED930197E9F78BBFEFEFEDBFE0E10C
:1000D600EEBFC0E0D5E00C94AA00AA93E881F0E058
:1000E600309781F1E130A0E0FA0711F4E1E02BC08E
:1000F600E230A0E0FA0711F4E3E025C0E330A0E027
:10010600FA0711F4E7E01FC0E430A0E0FA0711F4A3
:10011600EFE019C0E530A0E0FA0711F4EFE113C0F3
:10012600E630A0E0FA0711F4EFE30DC0E730A0E0F7
:10013600FA0711F4EFE707C0E830A0E0FA0711F478
:10014600EFEF01C0E0E0E093620021960895E0E061
:10015600EBBBEABBE8BBE0E4E7BBE0E0E5BBE4BB46
:10016600E2BBE1BBE3B9E2B9EFEFE0936200E093F3
:100176006100E0E0E0936500E0936400E0BFE3BF68
:10018600E2BFE1BFEFBDEEBDEDBDECBDE7BDE6BD37
:10019600EBBDEABDE9BDE8BDE0937900E0937800E8
:1001A600E5BDE4BDE3BDE0938B00E0938A00E093F8
:1001B6008900E0938800E0938100E0938000E0935B
:1001C6008700E0938600E0938500E0938400E09347
:1001D6008300E0938200E0936A00EABFE9BFE7BFCD
:1001E600E0937D00E0E8E8B9E0E0E0BDC69AA8EC5F
:1001F600B0E01CD0C69811E0193018F40CD01F5F7F
:10020600FBCF0ED019E0113018F005D01150FBCFFE
:1002160007D0F1CFFFCFA12F60DFA4E6B0E006C084
:10022600C69AA4EFB1E002D0C6980895109639F0A8
:10023600A89588EE93E00197F1F71197C9F708950D
:00000001FF
